:020000040000FA
:100000000201621200E07580FF7590FF75A0FF8508
:10001000A70E75A7307584C8758500758BC8758C5B
:1000200000850EA7750800750900C3E5099403E56E
:100030000864809480504700750A00750B00C3E582
:100040000B94FFE50A64809480502900750C0075BC
:100050000D00C3E50D94FFE50C64809480500B0007
:10006000050DE50D7002050C80E8050BE50B70022F
:10007000050A80CA0509E5097002050880AC63908D
:100080000480A12275A7007597A57512007511004F
:10009000751000750F007F197E007D007C00AB128B
:1000A000AA11A910A80FC3120151502300AF12AE1C
:1000B00011AD10AC0F7B017A0079007800EF2BF5C1
:1000C00012EE3AF511ED39F510EC38F50F80C7A2B4
:1000D000AF9200C2AF7597DE7597ADA20092AF22C6
:1000E00085A71312008412018B120195120171125F
:1000F000019F12017E1201A91201C51201C912014C
:10010000B01201B71201171201371201BE1201CD50
:100110001201D18513A72275A70075A900E5A9547E
:1001200080FF7E00EF4E60F575A903E5A95480FFBE
:100130007E00EF4E60F5228588155388AF758DDD02
:10014000E5155440FFE5155410FEEE4FFFEF4288D1
:1001500022EB9FF5F0EA9E42F0E99D42F0E89C45D3
:10016000F0221201D5787FE4F6D8FD7581200200D7
:100170000375A60875A72075F30A75CC0D2275BB0B
:100180000675BC1875B91843E8802275A49275F1FC
:10019000FE75D4CF2275A51475F27C75D5772275BE
:1001A000A70075E34075E1052275A730759180229F
:1001B00075A70075D1802275A71075C110227589A9
:1001C0002043884022759580227588002243C10310
:0601D000224398102222D8
:00000001FF
