:020000040000FA
:100000000201531200D17580FF7590FF75A0FF7536
:100010000800750900C3E5099403E508648094802D
:10002000504700750A00750B00C3E50B94FFE50A05
:1000300064809480502900750C00750D00C3E50D97
:1000400094FFE50C64809480500B00050DE50D7065
:1000500002050C80E8050BE50B7002050A80CA0555
:1000600009E5097002050880AC63A0086390146379
:1000700080F2809B2275A7007597A57511007510F9
:1000800000750F00750E007F197E007D007C00ABAF
:1000900011AA10A90FA80EC3120142502300AF11DC
:1000A000AE10AD0FAC0E7B017A0079007800EF2B1B
:1000B000F511EE3AF510ED39F50FEC38F50E80C775
:1000C000A2AF9200C2AF7597DE7597ADA20092AF56
:1000D0002285A71212007512017C1201861201629C
:1000E00012019012016F12019A1201B61201BA1296
:1000F00001A11201A81201081201281201AF120178
:10010000BE1201C28512A72275A70075A900E5A934
:100110005480FF7E00EF4E60F575A903E5A9548079
:10012000FF7E00EF4E60F5228588145388AF758DF1
:10013000DDE5145440FFE5145410FEEE4FFFEF428E
:100140008822EB9FF5F0EA9E42F0E99D42F0E89CA0
:1001500045F0221201C6787FE4F6D8FD75812002B1
:10016000000375A60875A72075F30A75CC0D2275D6
:10017000BB0675BC1875B91843E8802275A4927542
:10018000F1FE75D4CF2275A51475F27C75D5772252
:1001900075A70075E34075E1052275A7307591805C
:1001A0002275A70075D1802275A71075C110227520
:1001B000892043884022759580227588002243C19A
:0701C00003224398102222E4
:00000001FF
