:020000040000FA
:10000000020DD675A73075918022220204A175A732
:100010000075A900E5A95480FF7E00EF4E60F575DC
:10002000A903E5A95480FF7E00EF4E60F52275A478
:0A0030009275F1FE75D4CF22322242
:10003B00020CF18F6C756E00AF6E7E00C3EF9414E3
:10004B00EE64809480501C00756F00AF6F7E00C310
:10005B00EF94FFEE64809480500500056F80EC05F3
:10006B006E80D52243981022020038010800010946
:10007B0000C100C101020A0000020C0000020E00C8
:10008B000102100001640000000000C0F0F81C0C1D
:10009B000404041CF8F0C00000000000000808FC79
:1000AB00FCFC0000000000000000006030180C0C8D
:1000BB000C1C3CF8F8E000000000002030180C0C81
:1000CB000C0C1CF8F8000000000000000000008081
:1000DB00E030F8FCFC0000000000000080E0FC8C2D
:1000EB008C8C0C0C0C0C00000000000080C0E0702D
:1000FB0038180C0C0404000000000000381C0C0C19
:10010B000C0C0C0CCCFC7C04000000FFFFFF00006F
:10011B0000000000F7FFFF0000000000000000FFE0
:10012B00FFFF000000000000000000000000008046
:10013B00C060381F0F030000000000000000000823
:10014B000C0E1F3DF8F00000000000E0D8CCC3C13E
:10015B00C0C0FFFFFFC0C00000000000010103038F
:10016B0003070F1FFEF80000000000FEFFFF07064D
:10017B000202060EFEFCF80000000000000000006A
:10018B000080F0FE1F03000000000001070F1C1091
:10019B001010101C0F070100000000000010101FB2
:1001AB001F1F10100000000000000010181C1A196F
:1001BB001818181818180000000000081C18181040
:1001CB001010080C070300000000000000000000E6
:1001DB0000001F1F1F0000000000001C1C1C18103B
:1001EB001018080E0701000000000001070F1C1873
:1001FB00101010180F070300000000000000000093
:10020B001C1F07000000000000000000F8FCC68265
:10021B00020202CEFC780000000000F0F8FC06029F
:10022B000202060CFCF8E0000000000000000000D9
:10023B0000000000000000000000000000000000B3
:10024B0000000000000000000000000000000000A3
:10025B000000000000000000000000000000000093
:10026B000000000000000000000000000000000083
:10027B000000000000000000000000000000000073
:10028B00000000000000000000000080E0F11B07F0
:10029B00070F1F3DF8F0C00000000003070F0C0C08
:1002AB000808C8FCFF7F0F000000000000000000E2
:1002BB000000000000000000000000000000000033
:1002CB000000000000000000000000000000000023
:1002DB000000000000000000000000000000000013
:1002EB000000000000000000000000000000000003
:1002FB0000000000000000000000000000000000F3
:10030B0000000000000000000000000103070E08C1
:10031B000808080C070301000000000008080C0C7B
:10032B000607030100000000000000000000000EA3
:10033B000E0E000000000000000000000000000096
:10034B0000000000000000000000000000000000A2
:10035B000000000000000000000000000000000092
:10036B000000000000000000000000000000000082
:10037B000000000000000000000000000000000072
:10038B000000000000000000000000000000000062
:10039B000000000000000000000000000000000052
:1003AB000000000000000000000000000000000042
:1003BB000000000000000000000000000000000032
:1003CB000000000000000000000000000000000022
:1003DB000000000000000000000000000000000012
:1003EB000000000000000000000000000000000002
:1003FB0000000000000000000000000000000000F2
:10040B0000000000000000000000000000000000E1
:10041B0000000000000000000000000000000000D1
:10042B0000000000000000000000000000000000C1
:10043B0000000000000000000000000000000000B1
:10044B0000000000000000000000000000000000A1
:10045B000000000000000000000000000000000091
:10046B000000000000000000000000000000000081
:10047B000000000000000000000000000000000071
:10048B00000000000000000000024C0006024E00BD
:10049B00000245000000C0E0C0D075D000C000C015
:1004AB0002C003C004C005C006C007757500757691
:1004BB0000757700757800758A00050BE50B7002E7
:1004CB00050AE50B6402450A6003020716750A006C
:1004DB00750B002094030205DBE51730E0030205E2
:1004EB00DBA294309501B35066AE16AF17EF7802CE
:1004FB00CEC313CE13D8F9FFEE540FFEC3EF950FF7
:10050B00EE950E50095317035316C00205D2AC16C5
:10051B00AD17AA0EAB0FAE04ED7802CEC313CE13FC
:10052B00D8F9FFEE540FFEEC54C0FCED5403FDC3A1
:10053B00EF9BFFEE9AFEEE540FFEEF7802C333CE25
:10054B0033CED8F9FFEC4EF516ED4FF5178078AE9C
:10055B0016AF17EF7802CEC313CE13D8F9FFEE54B4
:10056B000FFEEF250FFFEE350EFED3EF94B8EE9492
:10057B000B4016E51654C0FEE5175403FFEE442E50
:10058B00F516EF44E0F517803EAC16AD17AA0EAB8F
:10059B000FAE04ED7802CEC313CE13D8F9FFEE5491
:1005AB000FFEEC54C0FCED5403FDEF2BFFEE3AFEB7
:1005BB00EE540FFEEF7802C333CE33CED8F9FFECF7
:1005CB004EF516ED4FF5174317014316007508004E
:1005DB002094065317FE5316FFAE16AF17EF780293
:1005EB00CEC313CE13D8F9FFEE540FF54E8F4F2019
:1005FB0082030206F7E51530E0030206F7A282300C
:10060B008301B35066AE14AF15EF7802CEC313CE91
:10061B0013D8F9FFEE540FFEC3EF9511EE95105062
:10062B00095315035314C00206EEAC14AD15AA10F2
:10063B00AB11AE04ED7802CEC313CE13D8F9FFEE97
:10064B00540FFEEC54C0FCED5403FDC3EF9BFFEEC7
:10065B009AFEEE540FFEEF7802C333CE33CED8F9A9
:10066B00FFEC4EF514ED4FF5158078AE14AF15EF8A
:10067B007802CEC313CE13D8F9FFEE540FFEEF253D
:10068B0011FFEE3510FED3EF94F4EE94014016E516
:10069B001454C0FEE5155403FFEE4407F514EF4464
:1006AB00D0F515803EAC14AD15AA10AB11AE04ED10
:1006BB007802CEC313CE13D8F9FFEE540FFEEC54D1
:1006CB00C0FCED5403FDEF2BFFEE3AFEEE540FFE94
:1006DB00EF7802C333CE33CED8F9FFEC4EF514EDE1
:1006EB004FF515431501431400750901208206537C
:1006FB0015FE5314FFAE14AF15EF7802CEC313CE15
:10070B0013D8F9FFEE540FF5458F4620812B2001AE
:10071B0028E51164014510700875100075110A80E9
:10072B0016E511640A451070087510007511648088
:10073B0006751000751101D201300105308102C21E
:10074B000120962B200028E50F6401450E700875DB
:10075B000E00750F0A8016E50F640A450E700875BA
:10076B000E00750F648006750E00750F01D20030F8
:10077B000005309602C200D007D006D005D004D0B9
:10078B0003D002D000D0D0D0E03275640075650084
:10079B00756600756700756800756900756A007588
:1007AB006B00120F7A85A76075A73075842275854B
:1007BB0002758977758A038560A7120E657F3212E1
:1007CB00003E754C00754D057523007524AE7525DF
:1007DB00D57526807527A87547781210167F3212AB
:1007EB00003E754C00754D0275230075243F75470F
:1007FB00781210167F3212003E754C00754D057540
:10080B0023007524D375250075264075278D7547F4
:10081B00781210167F3212003E754C00754D027522
:10082B0023007524147547781210167F3212003E80
:10083B00754C00754D0575230075242075250075C5
:10084B0026A17527C87547781210167F3212003E05
:10085B00754C00754D027523007524DA75477812B7
:10086B0010167F3212003E754C00754D0275230039
:10087B007524127547781210167F3212003E754C94
:10088B0000754D027523007524817547781210167B
:10089B007F3212003E754C00754D02752300752496
:1008AB00CF7547781210167F3212003E754C0075CB
:1008BB004D027523007524D97547781210167F32B7
:1008CB0012003E754C00754D027523007524F175B1
:1008DB0047781210167F3212003E754C00754D078B
:1008EB007523007524DB7525407526A47527A67521
:1008FB00282E7529AF7547781210167F3212003EDD
:10090B00754C00754D0675230075242275250075F1
:10091B0026FF7527217528007547781210167F3230
:10092B0012003E754C00754D0275230075247F75C2
:10093B0047781210167F3212003E756A00756B00F5
:10094B0085A76075A7004388108560A7756400753F
:10095B006500AF4FAE4E120BAF756600756700C3E7
:10096B00E5679408E5666480948050177B017A00F4
:10097B0079007D007C04120F200567E56770020586
:10098B006680DCAF46AE45120BAF7566007567002F
:10099B00C3E5679408E5666480948050177B017A01
:1009AB000079007D007C04120F200567E56770025B
:1009BB00056680DC0565E56570020564809422E7B9
:1009CB0009F608DFFA8046E709F208DFFA803E886D
:1009DB00828C83E709F0A3DFFA8032E309F608DFA4
:1009EB00FA8078E309F208DFFA807088828C83E35F
:1009FB0009F0A3DFFA806489828A83E0A3F608DF1B
:100A0B00FA805889828A83E0A3F208DFFA804C804F
:100A1B00D280FA80C680D4806980F28033801080C7
:100A2B00A680EA809A80A880DA80E280CA80338927
:100A3B00828A83ECFAE493A3C8C582C8CCC583CC65
:100A4B00F0A3C8C582C8CCC583CCDFE9DEE7800D37
:100A5B0089828A83E493A3F608DFF9ECFAA9F0ED17
:100A6B00FB2289828A83ECFAE0A3C8C582C8CCC575
:100A7B0083CCF0A3C8C582C8CCC583CCDFEADEE843
:100A8B0080DB89828A83E493A3F208DFF980CC8828
:100A9B00F0EF60010E4E60C388F0ED2402B4040049
:100AAB0050B9F582EB2402B4040050AF23234582E6
:100ABB0023900A1A73BB010CE58229F582E5833A70
:100ACB00F583E0225006E92582F8E622BBFE06E913
:100ADB002582F8E222E58229F582E5833AF583E463
:100AEB009322C2D5EC30E709B2D5E4C39DFDE49C5B
:100AFB00FCEE30E715B2D5E4C39FFFE49EFE120B6C
:100B0B005AC3E49DFDE49CFC8003120B5A30D507BD
:100B1B00C3E49FFFE49EFE22EB9FF5F0EA9E42F0BA
:100B2B00E99D42F0E89C45F022D083D082F8E49313
:100B3B007012740193700DA3A393F8740193F58253
:100B4B008883E4737402936860EFA3A3A380DFBC74
:100B5B00000BBE0029EF8DF084FFADF022E4CCF842
:100B6B0075F008EF2FFFEE33FEEC33FCEE9DEC98A7
:100B7B004005FCEE9DFE0FD5F0E9E4CEFD22EDF82D
:100B8B00F5F0EE8420D21CFEADF075F008EF2FFFD0
:100B9B00ED33FD4007985006D5F0F222C398FD0FB8
:100BAB00D5F0EA228E508F517556007557007BFF9A
:100BBB007A107932C003C002C0017B007A007958E9
:100BCB00A801AC02AD03D001D002D0037E007F0898
:100BDB00120A9AAE50AF517C007D0A120AED8D5D60
:100BEB00AE50AF517C007D0A120AED8E508F51AE84
:100BFB0050AF517C007D0A120AED8D5CAE50AF51A7
:100C0B007C007D0A120AED8E508F51AE50AF517C95
:100C1B00007D0A120AED8D5AAE50AF517C007D0A51
:100C2B00120AED8E508F51AE50AF517C007D0A12DF
:100C3B000AED8D59AF597E00EF4E700375590C7547
:100C4B005200755300C3E5539403E55264809480BE
:100C5B004003020CF0755400755500C3E55594081C
:100C6B00E554648094805072AF5574582FF8E6FFAA
:100C7B007E008E568F57D3E5579407E556648094C4
:100C8B0080401CE557C4F8540FC868FFE556C454A0
:100C9B00F048FEEF2400F557EE3401F5568012E5CF
:100CAB0057C4F8540FC868F557E556C454F048F5C7
:100CBB00567B017A007900AE52E5537807C333CEE9
:100CCB0033CED8F9FFEF2557FDEE3556FC120F202A
:100CDB000555E5557002055480810553E5537002A7
:100CEB000552020C5022C0E0C083C082C0D075D028
:100CFB0000C000C006C007C20530C203020DA8E544
:100D0B00C054F0FFEF120B340D75800D38C00D2061
:100D1B00E000000DA28547C253C2FEA203E433FFDD
:100D2B00EF42C2C2C5751301751201807230C12C1E
:100D3B0020036CAF127E00D3EF954DE54C6480F829
:100D4B00EE648098500EAF1274222FF8E6FF8FC21C
:100D5B000512804BD2C4C20280458043D2C4D2C597
:100D6B000522E522700205218035AF137E00C3EF0B
:100D7B009404EE64809480500EAF1374472FF8A642
:100D8B00C2D2C105138018AF1374472FF8A6C2C285
:100D9B0002C2C1D2C48008D20580048002D20530C1
:100DAB00051853C17F43C180C2C5C2C4C2C1C202B0
:100DBB00C2050522E52270020521C2C0D007D0066C
:100DCB00D000D0D0D082D083D0E032120039787FDF
:100DDB00E4F6D8FD75817F020E20020795E493A3FC
:100DEB00F8E493A34003F68001F208DFF48029E4D2
:100DFB0093A3F85407240CC8C333C4540F4420C81E
:100E0B00834004F456800146F6DFE4800B010204B4
:100E1B000810204080900076E47E019360BCA3FF15
:100E2B00543F30E509541FFEE493A360010ECF54E9
:100E3B00C025E060A840B8E493A3FAE493A3F8E4D8
:100E4B0093A3C8C582C8CAC583CAF0A3C8C582C844
:100E5B00CAC583CADFE9DEE780BE757C00AF7C7E46
:100E6B0000C3EF9402EE64809480504C757900AF10
:100E7B00797E00C3EF9414EE648094805033007538
:100E8B007A00AF7A7E00C3EF94FFEE6480948050BB
:100E9B001C00757B00AF7B7E00C3EF94FFEE64807C
:100EAB009480500500057B80EC057A80D505798010
:100EBB00BE639004057C80A52275A7007597A57568
:100ECB0074007573007572007571007F197E007D5B
:100EDB00007C00AB74AA73A972A871C3120B2350C8
:100EEB002300AF74AE73AD72AC717B017A007900E5
:100EFB007800EF2BF574EE3AF573ED39F572EC38AB
:100F0B00F57180C7A2AF9204C2AF7597DE7597AD2E
:100F1B00A20492AF228B188A19891A8C1B8D1C750F
:100F2B001D00754C00754D11752340751D00AF1DCF
:100F3B007E00C3EF9410EE648094805026AF1D7E2C
:100F4B0000EF251CFFEE351BFEAB18AA19A91A8F53
:100F5B00828E83120AC0FFAE1D74242EF8A60705DD
:100F6B001D80CB7547781210167F3212003E2285FA
:100F7B00A71E120EC412002E120FEE120FF8121033
:100F8B0002120FDE12000312102E12000A12102092
:100F9B0012000E120FB112100C12102712006F124A
:100FAB000FCB851EA72285887D5388AF758DF1E504
:100FBB007D5440FFE57D5410FEEE4FFFEF4288223B
:100FCB0075E68175A71075EE0175BB0175A70075E8
:100FDB00A8822275BB0675DF1F75BC1875B918433F
:100FEB00E8802275A51475F27C75D5772275A7203C
:100FFB0075F30C75CC072275A70075E34075E105F9
:10100B0022758E05758921438840222002FDD2026C
:10101B00C203D2C52275A71075C1102253C1FC4360
:0F102B00C1DD22759380220B00000A00000B0B21
:00000001FF
