:020000040000FA
:1000000002134275A7307591802222020A7FE4F51F
:10001000A7F5A9E5A9548060FA75A903E5A954805C
:1000200060FA22020FAFE5C8540453C8FB43C80866
:1000300075CBFB43C80442C82222220211DC020312
:1000400086E86480F8E933E83360110460F0ED334A
:10005000EC337009E8FCE9FDEAFEEBFF220460DE08
:10006000D3EB9FEA9EE99DE8C2E78CF0C2F795F0DA
:10007000400CE8CCF8E9CDF9EACEFAEBCFFB12035D
:100080005185D0F05804700320D5B3E804700750B0
:1000900002B2D502039092D5EC0460F7E4CCC0E044
:1000A000C398F8603B94186008400DD0E0FB020351
:1000B00068E4FBFAC9FC8028E830E406E4C9FBE404
:1000C000CAFCE830E305E4C9CACBFCE85407601079
:1000D000F8C3E913F9EA13FAEB13FBEC13FCD8F1BC
:1000E00030F52FC3E49CFCEF9BFFEE9AFEED99FDEB
:1000F000D0E0FBEF4E4D4C701222DB0302038DEC7F
:100100002CFCEF33FFEE33FEED33FDED30E7EB0279
:100110000368EF2BFFEE3AFEED39FDD0E0FB501304
:100120000BBB0003020390ED13FDEE13FEEF13FF74
:10013000EC13FC020368EC4D6011E8497017ED33D5
:10014000EC3304600DE4FCFFFEFD22E933E83304E8
:1001500070F802038612035158046009E4CC24812C
:10016000500628500902039028400302038DC0E086
:10017000EB4A7044B98006D0E0FB02037CEF4E707E
:100180001CBD8008EBFFEAFEE9FD80EBE98DF0A4E1
:10019000FEE5F002021FE9CDF9EAFEEBFFEF89F080
:1001A000A4FCE5F0CE89F0A42EFFE435F0CD89F073
:1001B000A42DFEE435F08067EF4E7005BD80D7803A
:1001C000C3EF8BF0A4ACF0EE8BF0A42CFCE435F084
:1001D000F8EF8AF0A42CE5F038FCE433CB8DF0A4E2
:1001E0002CFCE5F03BF8EE8AF0A42CFCE5F038F8A6
:1001F000E433CF89F0A42CFCE5F038CF3400CE896D
:10020000F0A42FFFE5F03EFEE433C98DF0A42EFEEE
:10021000E5F039CD8AF0A42FFFE5F03EFEE43DFD88
:1002200033D0E0FB50070BBB000F020390EC2CFC1B
:10023000EF33FFEE33FEED33FD020368020390EC73
:100240005D046005E85904700302038612035158E7
:100250000460F6EC4860F2EC7004FDFEFF22C8601A
:10026000DB2481C85009C3986002500602038D98B0
:1002700050CAF582E9294B4A7005AB8202037C75AE
:10028000F0007C1A7880C3EF9BEE9AED99400DC385
:10029000EF9BFFEE9AFEED99FDE842F0DC23ACF017
:1002A000D0E0FFD0E0FED0E0FDAB8220E7101BEBFA
:1002B00060BAEC2CFCEF33FFEE33FEED33FD0203AE
:1002C00068E803F830E705C0F075F000EF2FFFEEA7
:1002D00033FEED33FD40B830E7C280AA75F02080D0
:1002E0000E75F010800575F0087D007E007F0033EC
:1002F00092D530D503120549EC334010EF33FFEEB1
:1003000033FEED33FDEC33FCD5F0ED22E5F0247E39
:10031000A2D513CC92E7CDCEFF22EDD2E7CD33ECC0
:100320003392D524814006E4FFFEFDFC22FCE4CF9D
:10033000CECDCC24E0501174FF80EDC3CC13CCCDD6
:1003400013CDCE13CECF13CF0470F030D5DE02051F
:1003500049E9D2E7C933E833F892D5EDD2E7CD3396
:10036000EC33FC5002B2D522EC30E7100FBF000C8A
:100370000EBE00080DBD00040BEB6014A2D5EB13FC
:10038000FCED92E7FD2274FFFCFDFEFF22E480F805
:10039000A2D574FF13FC7D80E480EFE709F608DF47
:1003A000FA8046E709F208DFFA803E88828C83E70C
:1003B00009F0A3DFFA8032E309F608DFFA8078E378
:1003C00009F208DFFA807088828C83E309F0A3DFEA
:1003D000FA806489828A83E0A3F608DFFA8058896C
:1003E000828A83E0A3F208DFFA804C80D280FA8010
:1003F000C680D4806980F28033801080A680EA8035
:100400009A80A880DA80E280CA803389828A83EC6D
:10041000FAE493A3C8C582C8CCC583CCF0A3C8C5F1
:1004200082C8CCC583CCDFE9DEE7800D89828A8370
:10043000E493A3F608DFF9ECFAA9F0EDFB22898238
:100440008A83ECFAE0A3C8C582C8CCC583CCF0A3EC
:10045000C8C582C8CCC583CCDFEADEE880DB8982F0
:100460008A83E493A3F208DFF980CC88F0EF60017F
:100470000E4E60C388F0ED2402B4040050B9F5823A
:10048000EB2402B4040050AF23234582239003EBF6
:1004900073BB010CE58229F582E5833AF583E022FE
:1004A0005006E92582F8E622BBFE06E92582F8E23D
:1004B00022E58229F582E5833AF583E49322BC00A4
:1004C0000BBE0029EF8DF084FFADF022E4CCF8756F
:1004D000F008EF2FFFEE33FEEC33FCEE9DEC98407E
:1004E00005FCEE9DFE0FD5F0E9E4CEFD22EDF8F51A
:1004F000F0EE8420D21CFEADF075F008EF2FFFED7A
:1005000033FD4007985006D5F0F222C398FD0FD571
:10051000F0EA22C2D5EC30E709B2D5E4C39DFDE490
:100520009CFCEE30E715B2D5E4C39FFFE49EFE12BB
:1005300004BEC3E49DFDE49CFC80031204BE30D5E0
:1005400007C3E49FFFE49EFE22C3E49FFFE49EFEF8
:10055000E49DFDE49CFC22EB9FF5F0EA9E42F0E96D
:100560009D42F0E89C45F022ECF0A3EDF0A3EEF004
:10057000A3EFF0226080043F0000000042F7FD81FD
:100580004375772E43B7502843F45EA14418DBE04F
:100590004437409F4455B1224473F9D5448931F41E
:1005A0004498425044A760C844B687B644C5F80092
:1005B00044D56D0944E4DBA844F435134501B9C2C0
:1005C0004508BE98450FE4C8451724AF451ECBDA51
:1005D00045266A69452DF21F4535A063453D28191A
:1005E0004544B8FA454D65D145550000455B40008E
:1005F00045618000456180006030040F4027E120A4
:1006000043D3493D44538047449D951E44D232878D
:1006100045021943451C16F94534D9DF454F800082
:10062000456BCBA3458585D1458585D10116000154
:100630000E00010F0001140001150002120000025B
:100640001000004104000041040100C100C101424A
:1006500004020000420404000002080001020A0033
:100660000141040B0341040C0042040D000064002E
:1006700000000000C0F0F81C0C0404041CF8F0C0DA
:100680000000000000000808FCFCFC000000000066
:10069000000000006030180C0C0C1C3CF8F8E00066
:1006A000000000002030180C0C0C0C1CF8F80000A6
:1006B000000000000000000080E030F8FC000000B6
:1006C000000000000080E0FC8C8C8C0C0C0C0C00FA
:1006D000000000000080C0E07038180C0C0404001A
:1006E0000000000000381C0C0C0C0C0C0CCCFC7C2A
:1006F00004000000FFFFFF000000000000F7FFFF04
:100700000000000000000000FFFFFF0000000000EC
:10071000000000000000000080C060381F0F0300D0
:100720000000000000000000080C0E1F3DF8F00063
:1007300000000000E0D8CCC3C1C0C0FFFFC0C0C0F3
:1007400000000000000101030303070F1FFEF80073
:1007500000000000FEFFFF07060202060EFEFCF886
:100760000000000000000000000080F0FE1F0300F9
:100770000000000001070F1C101010101C0F0701D3
:1007800000000000000010101F1F1F1010000000CC
:100790000000000010181C1A191818181818180052
:1007A00000000000081C1818101010080C070300A7
:1007B00000000000000000000000001F1F000000FB
:1007C000000000001C1C1C18101018080E07010067
:1007D0000000000001070F1C18101010180F07036D
:1007E0000000000000000000001C1F0700000000C7
:1007F0000000000000F8FCC682020202CEFC780075
:1008000000000000F0F8FC06020202060CFCF8E012
:1008100000000000000000000000000000000000D8
:1008200000000000000000000000000000000000C8
:1008300000000000000000000000000000000000B8
:1008400000000000000000000000000000000000A8
:100850000000000000000000000000000000000098
:100860000000000000000000000000000000000088
:100870000000000080E0F11B07070F1F3DF8F0C0EB
:100880000000000003070F0C0C0808C8FCFF7F0FD6
:100890000000000000000000000000000000000058
:1008A0000000000000000000000000000000000048
:1008B0000000000000000000000000000000000038
:1008C0000000000000000000000000000000000028
:1008D0000000000000000000000000000000000018
:1008E0000000000000000000000000000000000008
:1008F000000000000103070E080808080C070301A8
:10090000000000000008080C0C06070301000000AE
:1009100000000000000000000E0E0E0000000000AD
:1009200000000000000000000000000000000000C7
:1009300000000000000000000000000000000000B7
:1009400000000000000000000000000000000000A7
:100950000000000000000000000000000000000097
:100960000000000000000000000000000000000087
:100970000000000000000000000000000000000077
:100980000000000000000000000000000000000067
:100990000000000000000000000000000000000057
:1009A0000000000000000000000000000000000047
:1009B0000000000000000000000000000000000037
:1009C0000000000000000000000000000000000027
:1009D0000000000000000000000000000000000017
:1009E0000000000000000000000000000000000007
:1009F00000000000000000000000000000000000F7
:100A000000000000000000000000000000000000E6
:100A100000000000000000000000000000000000D6
:100A200000000000000000000000000000000000C6
:100A300000000000000000000000000000000000B6
:100A400000000000000000000000000000000000A6
:100A50000000000000000000000000000000000096
:100A60000000000000000000000000000000000086
:100A70000000024C0006024E00000245000000C0CB
:100A8000E0C0F0C083C082C0D075D000C000C001FB
:100A9000C002C003C004C005C006C0079004BFE484
:100AA000F0F550F551F552F553F58A900403E00442
:100AB000F07006900402E004F0900402E07004A3D9
:100AC000E064026003020C55900402F0A3F020944D
:100AD00003020B80E51330E003020B80A2943095F3
:100AE00001B350561212E9CEC313CE13D8F9FFEE5C
:100AF000540FFEE5092FFFE5083EFED3EF94B8EE54
:100B0000940B4016E51254C0FEE5135403FFEE4467
:100B10002EF512EF44E0F513805EAC12AD13AA0877
:100B2000AB09AE04ED7802CEC313CE13D8F912127E
:100B3000C4C333CE33CED8F980351212E9CEC313F5
:100B4000CE13D8F9FFEE540FFEC3EF9509EE9508CA
:100B500050085313035312C0801E121322C3EF9583
:100B600009FFEE95081212D6C333CE33CED8F9FF63
:100B7000EC4EF512ED4FF513431301900400E4F031
:100B80002094035313FE1212E9CEC313CE13D8F9E7
:100B9000FFEE540FF54E8F4F208203020C3DE511FE
:100BA00030E003020C3DA282308301B350481212A0
:100BB000F0CEC313CE13D8F9FFEE540FFEE50B2F82
:100BC000FFE50A3EFED3EF94FFEE940F4008431179
:100BD000FC43103F805EAC10AD11AA0AAB0BAE0413
:100BE000ED7802CEC313CE13D8F91212C4C333CE9C
:100BF00033CED8F980351212F0CEC313CE13D8F904
:100C0000FFEE540FFEC3EF950BEE950A50085311FB
:100C1000035310C0801E12132DC3EF950BFFEE95EA
:100C20000A1212D6C333CE33CED8F9FFEC4EF510EC
:100C3000ED4FF5114311019004017401F02082037E
:100C40005311FE1212F0CEC313CE13D8F9FFEE5497
:100C50000FF5458F461212E9CEC313CE13D8F91201
:100C600012DDA9079004BFE9F01213061212A312B5
:100C700012AFC000C001C002C0039004BFE0FF1269
:100C800013061212B8EF25E025E02443F582E43480
:100C900004F5831212A3120041C004C005C006C0AF
:100CA000071212E9CEC313CE13D8F91212DDE412E3
:100CB00002E1D003D002D001D000120136E4FBFAE9
:100CC00079C8784212023FD003D002D001D000127E
:100CD000129712031A900406EEF0A3EFF01212F02E
:100CE000CEC313CE13D8F97D321212DFA9079004B8
:100CF000BFE9F01213141212A31212AFC000C00108
:100D0000C002C0039004BFE0FF1213141212B8EF28
:100D100025E025E02413F582E43404F5831212A3C0
:100D2000120041C004C005C006C0071212F0CEC3B5
:100D300013CE13D8F9FFEE540FFE7C007D3212045F
:100D4000BEE41202E1D003D002D001D0001201367D
:100D5000E4FBFA7948784212023FD003D002D00176
:100D6000D00012129712031A900408EEF0A3EFF0CD
:100D7000ADA775A730900406E0FEA3E0F584EEF57C
:100D800085A3E0FEA3E0F589EEF58A8DA7208129F1
:100D9000200126E50B6401450A7007F50A750B0A68
:100DA0008015E50B640A450A7007F50A750B648027
:100DB00006750A00750B01D201300105308102C2AF
:100DC00001209629200026E509640145087007F5F1
:100DD0000875090A8015E509640A45087007F508D1
:100DE0007509648006750800750901D20030000598
:100DF000309602C200D007D006D005D004D003D070
:100E000002D001D000D0D0D082D083D0F0D0E03258
:100E1000E4F557F558F559F55AF55BF55CF55DF5D0
:100E20005E1214941214597F32121504754C00127C
:100E300014F37524AE7525D57526807527A8120F75
:100E40002B1214E475243F120F2B1214F37524D3C4
:100E5000F52575264075278D120F3A752414120F4B
:100E60004F1214F3752420F5257526A17527C81295
:100E70000F3A7524DA120F4F1214E4752412120F70
:100E80005E752481120F5E7524CF120F731214E465
:100E90007524D9120F731214E47524F1120F8275A0
:100EA0004D07E4F5237524DB7525407526A47527C9
:100EB000A675282E7529AF120F82754D06E4F5230D
:100EC000752422F5257526FF752721F528120FA315
:100ED000754C001214E475247F120FA3E4F55DF540
:100EE0005EAFA7F5A74388104398108FA7F557F575
:100EF00058AF4FAE4E121111E4F559F55A120F9139
:100F0000700205591214FA40F4AF46AE45121111A1
:100F1000E4F559F55A120F91700205591214FA406E
:100F2000F40558E55870CA055780C67547781215FC
:100F30008E7F32121504754C002275477812158E7B
:100F40007F32121504754C00754D02E4F5232275AD
:100F5000477812158E7F32121504754C00227547A2
:100F60007812158E7F32121504754C00754D02E40F
:100F7000F5232275477812158E7F32121504754CB1
:100F8000002275477812158E7F32121504754C00B9
:100F9000227B017A0079007D807C0312141C055AA3
:100FA000E55A2275477812158E7F3212150422C039
:100FB000E0C083C082C0D075D000C000C004C005AE
:100FC000C006C0072098030210B3C2988514158587
:100FD000991490040BE014604B14605114700302D8
:100FE00010A5240360030210B3E514146015146007
:100FF00019146023240360030210B3121338E4F0C1
:101000000210B3121338F00210B31212F7E54EF0CB
:10101000A3E54FF00210B31212F7E545F0A3E54641
:10102000F00210B390040B7402F00210B390040AA3
:10103000E0146037047066754E0085144FE54F75F7
:101040004F00F54EE515254FF54FE4354EF54E545E
:101050000FFEE54F7802C333CE33CED8F9FF12131B
:1010600022EC4EF512ED4FF51380327545008514D4
:1010700046E546754600F545E5152546F546E43551
:1010800045F545540FFEE5467802C333CE33CED83E
:10109000F9FF12132DEC4EF510ED4FF51190040BE6
:1010A0007403F0800EE514F47009E515F4700490F3
:1010B000040BF0309948C29990040CE0603B24FE88
:1010C000601514601D146029240370327599FF9017
:1010D000040C7402F0802775990090040C7403F0DE
:1010E000801C90040DA3E0F59990040C7404F0802A
:1010F0000D90040DE0F599800090040CE4F0D00709
:10110000D006D005D004D000D0D0D082D083D0E09B
:10111000328E5F8F60E4F565F56678677C00FD7B55
:10112000FF7A1579AAFE7F0812046BAE5FAF6012DA
:1011300014DD8D6C1214CE8D6B1214CE8D691214C9
:10114000CE8D68E568700375680CE4F561F562E4BE
:10115000F563F56474672564F8E6756500F566D394
:101160009407E56564809480E5664019C4F8540FDF
:10117000C868FFE565C454F048FEE42FF566EE3418
:1011800001F5658010C4F8540FC868F566E565C4BC
:1011900054F048F5657B017A007900AE61E562782C
:1011A00007C333CE33CED8F92566FDE5653EFC1284
:1011B000141C0564E56470020563C39408E5636468
:1011C000809480408F0562E56270020561C39403DC
:1011D000E56164809480500302114F22C0E0C0D0CA
:1011E00075D000C000C20430C203021271E5C054C1
:1011F000F02480605324C0601A24E070708547C2D8
:1012000053C2FEA203E43342C2C2C5750D01750C80
:1012100001806030C12420035AD3E50C954DE54C84
:101220006480F8748098500C7422250CF8E6F5C29E
:10123000050C803FD2C4C2028039D2C4D2C5052277
:10124000E522702F0521802BC3E50D940474809452
:10125000807447500B250DF8A6C2D2C1050D80132E
:10126000250DF8A6C2C202C2C1D2C48006D2048033
:1012700002D20430041853C17F43C180C2C5C2C426
:10128000C2C1C202C2040522E52270020521C2C009
:10129000D000D0D0D0E0321200459004C0120568D2
:1012A0009004C0E0FCA3E0FDA3E0FEA3E0FF2290D9
:1012B00004C01205689004C0E0F8A3E0F9A3E0FAC6
:1012C000A3E0FB22FFEE540FFEEC54C0FCED5403F0
:1012D000FDEF2BFFEE3A540FFEEF7802227D64FF04
:1012E000EE540FFE7C000204BEAE12E5137802221B
:1012F000AE10E51178022290040B7403F0A3740180
:10130000F07599FFA32225E025E0243FF582E4341F
:1013100004F5832225E025E0240FF582E43404F56A
:101320008322E51254C0FCE5135403FD22E510545A
:10133000C0FCE5115403FD2290040B7401F09004ED
:101340000A2212003A787FE4F6D8FD758173021301
:101350008C020E10E493A3F8E493A34003F68001FB
:10136000F208DFF48029E493A3F85407240CC8C3DF
:1013700033C4540F4420C8834004F456800146F619
:10138000DFE4800B0102040810204080900574E423
:101390007E019360BCA3FF543F30E509541FFEE477
:1013A00093A360010ECF54C025E060A840B8E49339
:1013B000A3FAE493A3F8E493A3C8C582C8CAC5837B
:1013C000CAF0A3C8C582C8CAC583CADFE9DEE78000
:1013D000BEE4F5A77597A5F563F562F561F560E4E0
:1013E0007F19FEFDFCAB63AA62A961A860C3120568
:1013F00057501800E5632401F563E43562F562E4B3
:101400003561F561E43560F56080D4A2AF9205C224
:10141000AF7597DE7597ADA20592AF228C6F8D7078
:10142000E4FFF54C754D11752340EFC394107480A3
:101430009480501AEF7C002570FDEC356F8D82F59D
:1014400083120491FE74242FF8A6060F80DC7547E2
:101450007812158E7F32021504E4FFEFC3940274F4
:10146000809480502EE4FEEEC394147480948050D7
:101470001C00E4FDED1214EB501000E4FCEC12141F
:10148000EB5004000C80F60D80EA0E80DA639004C5
:101490000F80C82285A75F1213D112155C12156642
:1014A00012157012157A12154C1200031215A6129D
:1014B000000A12159812000E121539120026121584
:1014C0008412159F120039121523855FA722AE5F83
:1014D000AF607C007D0A1205138E5F8F607C007DFB
:1014E0000A020513754D02E4F52322C394FF7480AC
:1014F000948022754D05E4F52322C39408E55964D0
:10150000809480228F71E4FFEFC3941474809480E0
:10151000501000E4FEEE1214EB5004000E80F60FA3
:1015200080E62275E60175A71075EE01E4F5A77552
:10153000A89275A71075F21022AF885388AF758DE9
:101540002BEF5440FEEF54104E42882275BB0675B7
:10155000DF1F75BC1875B91843E8802275A4107593
:10156000F1FE75D4CF2275A50475F27C75D577226E
:1015700075A72075F30C75CC0722E4F5A775E34039
:1015800075E10522758E0475892143884022200269
:10159000FDD202C203D2C52275A71075C110225315
:1015A000C1FC43C1DE22759380220B00000A0000BB
:0215B0000B0B23
:00000001FF
