:020000040000FA
:10000000020D5275A7307591802222020491E4F509
:10001000A7F5A9E5A9548060FA75A903E5A954805C
:1000200060FA22020A6AE5C8540453C8FB43C808B0
:1000300075CBFB43C80442C8222222020C9701164A
:1000400000010E00010F0001140001150002120052
:100050000002103FFC4104000041040100C100C146
:1000600001420402000042040400000208000102F0
:100070000A000141040B0341040C0042040D00007E
:10008000640000000000C0F0F81C0C0404041CF81C
:10009000F0C00000000000000808FCFCFC000000AC
:1000A0000000000000006030180C0C0C1C3CF8F83C
:1000B000E000000000002030180C0C0C0C1CF8F8BC
:1000C0000000000000000000000080E030F8FC00AC
:1000D0000000000000000080E0FC8C8C8C0C0C0CFC
:1000E0000C00000000000080C0E07038180C0C0408
:1000F00004000000000000381C0C0C0C0C0C0CCC94
:10010000FC7C04000000FFFFFF000000000000F77F
:10011000FFFF0000000000000000FFFFFF000000E4
:100120000000000000000000000080C060381F0FC9
:1001300003000000000000000000080C0E1F3DF846
:10014000F00000000000E0D8CCC3C1C0C0FFFFC079
:10015000C0C000000000000101030303070F1FFEE1
:10016000F80000000000FEFFFF07060202060EFE78
:10017000FCF80000000000000000000080F0FE1FFE
:1001800003000000000001070F1C101010101C0FCE
:10019000070100000000000010101F1F1F101000BA
:1001A00000000000000010181C1A19181818181860
:1001B000180000000000081C1818101010080C0788
:1001C000030000000000000000000000001F1F00EE
:1001D0000000000000001C1C1C18101018080E075E
:1001E00001000000000001070F1C18101010180F6C
:1001F00007030000000000000000001C1F070000B3
:1002000000000000000000F8FCC682020202CEFCE2
:10021000780000000000F0F8FC06020202060CFC68
:10022000F8E00000000000000000000000000000F6
:1002300000000000000000000000000000000000BE
:1002400000000000000000000000000000000000AE
:10025000000000000000000000000000000000009E
:10026000000000000000000000000000000000008E
:10027000000000000000000000000000000000007E
:1002800000000000000080E0F11B07070F1F3DF891
:10029000F0C00000000003070F0C0C0808C8FCFFAA
:1002A0007F0F0000000000000000000000000000C0
:1002B000000000000000000000000000000000003E
:1002C000000000000000000000000000000000002E
:1002D000000000000000000000000000000000001E
:1002E000000000000000000000000000000000000E
:1002F00000000000000000000000000000000000FE
:100300000000000000000103070E080808080C07A1
:100310000301000000000008080C0C0607030100A0
:10032000000000000000000000000E0E0E000000A3
:1003300000000000000000000000000000000000BD
:1003400000000000000000000000000000000000AD
:10035000000000000000000000000000000000009D
:10036000000000000000000000000000000000008D
:10037000000000000000000000000000000000007D
:10038000000000000000000000000000000000006D
:10039000000000000000000000000000000000005D
:1003A000000000000000000000000000000000004D
:1003B000000000000000000000000000000000003D
:1003C000000000000000000000000000000000002D
:1003D000000000000000000000000000000000001D
:1003E000000000000000000000000000000000000D
:1003F00000000000000000000000000000000000FD
:1004000000000000000000000000000000000000EC
:1004100000000000000000000000000000000000DC
:1004200000000000000000000000000000000000CC
:1004300000000000000000000000000000000000BC
:1004400000000000000000000000000000000000AC
:10045000000000000000000000000000000000009C
:10046000000000000000000000000000000000008C
:10047000000000000000000000000000000000007C
:1004800000000000024C0006024E00000245000081
:1004900000C0E0C083C082C0D075D000C000C002E0
:1004A000C003C004C005C006C007755000755100E8
:1004B000755200755300758A00900403E004F070D3
:1004C00006900402E004F0900402E07004A3E064EB
:1004D000026003020649900402F0A3F02094030294
:1004E000057AE51330E00302057AA294309501B352
:1004F0005042120E09CEC313CE13D8F9FFEE540F9B
:10050000FEE5092FFFE508120E2D40084313FC43BA
:10051000123F805EAC12AD13AA08AB09AE04ED78B1
:1005200002CEC313CE13D8F9120DE1C333CE33CEAE
:10053000D8F98035120E09CEC313CE13D8F9FFEEC9
:10054000540FFEC3EF9509EE95085008531303535B
:1005500012C0801E120E17C3EF9509FFEE95081208
:100560000DF3C333CE33CED8F9FFEC4EF512ED4F79
:10057000F513431301900400E4F02094035313FE99
:10058000120E09CEC313CE13D8F9FFEE540FF54E59
:100590008F4F208203020631E51130E0030206315D
:1005A000A282308301B35042120E10CEC313CE1379
:1005B000D8F9FFEE540FFEE50B2FFFE50A120E2DC2
:1005C00040084311FC43103F805EAC10AD11AA0AF5
:1005D000AB0BAE04ED7802CEC313CE13D8F9120DD7
:1005E000E1C333CE33CED8F98035120E10CEC3130B
:1005F000CE13D8F9FFEE540FFEC3EF950BEE950A1C
:1006000050085311035310C0801E120E22C3EF95E1
:100610000BFFEE950A120DF3C333CE33CED8F9FF9C
:10062000EC4EF510ED4FF5114311019004017401EA
:10063000F02082035311FE120E10CEC313CE13D836
:10064000F9FFEE540FF5458F46120E09CEC313CEB7
:1006500013D8F9FFEE540F900406F0A3EFF0120E3A
:1006600010CEC313CE13D8F9FFEE540F900408F048
:10067000A3EFF0ADA775A730900406E0FEA3E0F568
:1006800084EEF585A3E0FEA3E0F589EEF58A8DA75B
:10069000208129200126E50B6401450A7007F50A2F
:1006A000750B0A8015E50B640A450A7007F50A7593
:1006B0000B648006750A00750B01D201300105300C
:1006C0008102C201209629200026E509640145081F
:1006D0007007F50875090A8015E509640A45087070
:1006E00007F5087509648006750800750901D200D0
:1006F000300005309602C200D007D006D005D004E5
:10070000D003D002D000D0D0D082D083D0E032E766
:1007100009F608DFFA8046E709F208DFFA803E882A
:10072000828C83E709F0A3DFFA8032E309F608DF61
:10073000FA8078E309F208DFFA807088828C83E31C
:1007400009F0A3DFFA806489828A83E0A3F608DFD8
:10075000FA805889828A83E0A3F208DFFA804C800D
:10076000D280FA80C680D4806980F2803380108085
:10077000A680EA809A80A880DA80E280CA803389E5
:10078000828A83ECFAE493A3C8C582C8CCC583CC23
:10079000F0A3C8C582C8CCC583CCDFE9DEE7800DF5
:1007A00089828A83E493A3F608DFF9ECFAA9F0EDD5
:1007B000FB2289828A83ECFAE0A3C8C582C8CCC533
:1007C00083CCF0A3C8C582C8CCC583CCDFEADEE801
:1007D00080DB89828A83E493A3F208DFF980CC88E6
:1007E000F0EF60010E4E60C388F0ED2402B4040007
:1007F00050B9F582EB2402B4040050AF23234582A4
:100800002390075F73BB010CE58229F582E5833AEB
:10081000F583E0225006E92582F8E622BBFE06E9D0
:100820002582F8E222E58229F582E5833AF583E420
:100830009322C2D5EC30E709B2D5E4C39DFDE49C18
:10084000FCEE30E715B2D5E4C39FFFE49EFE12082C
:1008500079C3E49DFDE49CFC800312087930D50740
:10086000C3E49FFFE49EFE22EB9FF5F0EA9E42F078
:10087000E99D42F0E89C45F022BC000BBE0029EF48
:100880008DF084FFADF022E4CCF875F008EF2FFF77
:10089000EE33FEEC33FCEE9DEC984005FCEE9DFE45
:1008A0000FD5F0E9E4CEFD22EDF8F5F0EE8420D28C
:1008B0001CFEADF075F008EF2FFFED33FD400798FB
:1008C0005006D5F0F222C398FD0FD5F0EA22E4F5E8
:1008D00057F558F559F55AF55BF55CF55DF55E127F
:1008E0000F04120EC97F32120F74754C00120F6381
:1008F0007524AE7525D57526807527A81209E612D0
:100900000F5475243F1209E6120F637524D3F525A1
:1009100075264075278D1209F5752414120A0A12DE
:100920000F63752420F5257526A17527C81209F5D2
:100930007524DA120A0A120F54752412120A197554
:100940002481120A197524CF120A2E120F5475240D
:10095000D9120A2E120F547524F1120A3D754D0753
:10096000E4F5237524DB7525407526A47527A67547
:10097000282E7529AF120A3D754D06E4F52375241E
:1009800022F5257526FF752721F528120A5E754C7C
:1009900000120F5475247F120A5EE4F55DF55EAF18
:1009A000A7F5A74388108FA7F557F558AF4FAE4E60
:1009B000120BCCE4F559F55A120A4C700205591283
:1009C0000F6A40F4AF46AE45120BCCE4F559F55A28
:1009D000120A4C70020559120F6A40F40558E55886
:1009E00070CA055780C6754778120FFE7F32120F06
:1009F00074754C0022754778120FFE7F32120F7407
:100A0000754C00754D02E4F52322754778120FFEF0
:100A10007F32120F74754C0022754778120FFE7FDB
:100A200032120F74754C00754D02E4F523227547A0
:100A300078120FFE7F32120F74754C0022754778C2
:100A4000120FFE7F32120F74754C00227B017A0068
:100A500079007D807C03120E8C055AE55A22754779
:100A600078120FFE7F32120F7422C0E0C083C08262
:100A7000C0D075D000C000C004C005C006C00720AB
:100A80009803020B6EC29885141585991490040B77
:100A9000E014604B146051147003020B6024036077
:100AA00003020B6EE51414601514601914602324FE
:100AB000036003020B6E120E37E4F0020B6E120E8F
:100AC00037F0020B6E120DFAE54EF0A3E54FF0027F
:100AD0000B6E120DFAE545F0A3E546F0020B6E90A1
:100AE000040B7402F0020B6E90040AE014603704E9
:100AF0007066754E0085144FE54F754F00F54EE555
:100B000015254FF54FE4354EF54E540FFEE54F7861
:100B100002C333CE33CED8F9FF120E17EC4EF512C6
:100B2000ED4FF5138032754500851446E546754650
:100B300000F545E5152546F546E43545F545540FE0
:100B4000FEE5467802C333CE33CED8F9FF120E222B
:100B5000EC4EF510ED4FF51190040B7403F0800E80
:100B6000E514F47009E515F4700490040BF0309965
:100B700048C29990040CE0603B24FE601514601D8F
:100B8000146029240370327599FF90040C7402F0EC
:100B9000802775990090040C7403F0801C90040D5C
:100BA000A3E0F59990040C7404F0800D90040DE01E
:100BB000F599800090040CE4F0D007D006D005D061
:100BC00004D000D0D0D082D083D0E0328E5F8F604E
:100BD000E4F565F56678677C00FD7BFF7A10791A8D
:100BE000FE7F081207DFAE5FAF60120F4D8D6C12F3
:100BF0000F3E8D6B120F3E8D69120F3E8D68E568BA
:100C0000700375680CE4F561F562E4F563F56474EE
:100C1000672564F8E6756500F566D39407E56564B5
:100C2000809480E5664019C4F8540FC868FFE565F4
:100C3000C454F048FEE42FF566EE3401F5658010EB
:100C4000C4F8540FC868F566E565C454F048F56506
:100C50007B017A007900AE61E5627807C333CE3359
:100C6000CED8F92566FDE5653EFC120E8C0564E5DF
:100C70006470020563C39408E56364809480408FC8
:100C80000562E56270020561C39403E561648094C6
:100C9000805003020C0A22C0E0C0D075D000C00012
:100CA000C20430C203020D2CE5C054F0248060530E
:100CB00024C0601A24E070708547C253C2FEA203AC
:100CC000E43342C2C2C5750D01750C01806030C1AC
:100CD0002420035AD3E50C954DE54C6480F87480CC
:100CE00098500C7422250CF8E6F5C2050C803FD212
:100CF000C4C2028039D2C4D2C50522E522702F05B4
:100D000021802BC3E50D9404748094807447500BAC
:100D1000250DF8A6C2D2C1050D8013250DF8A6C277
:100D2000C202C2C1D2C48006D2048002D2043004FE
:100D30001853C17F43C180C2C5C2C4C2C1C202C26E
:100D4000040522E52270020521C2C0D000D0D0D017
:100D5000E03212003A787FE4F6D8FD758173020D17
:100D60009C0208CEE493A3F8E493A34003F6800129
:100D7000F208DFF48029E493A3F85407240CC8C3D5
:100D800033C4540F4420C8834004F456800146F60F
:100D9000DFE4800B010204081020408090003EE454
:100DA0007E019360BCA3FF543F30E509541FFEE46D
:100DB00093A360010ECF54C025E060A840B8E4932F
:100DC000A3FAE493A3F8E493A3C8C582C8CAC58371
:100DD000CAF0A3C8C582C8CAC583CADFE9DEE780F6
:100DE000BEFFEE540FFEEC54C0FCED5403FDEF2BA0
:100DF000FFEE3A540FFEEF78022290040B7403F0DA
:100E0000A37401F07599FFA322AE12E513780222B4
:100E1000AE10E511780222E51254C0FCE51354032C
:100E2000FD22E51054C0FCE5115403FD223EFED323
:100E3000EF94FFEE940F2290040B7401F090040ADB
:100E400022E4F5A77597A5F563F562F561F560E411
:100E50007F19FEFDFCAB63AA62A961A860C31208FA
:100E600068501800E5632401F563E43562F562E437
:100E70003561F561E43560F56080D4A2AF9205C2BA
:100E8000AF7597DE7597ADA20592AF228C6F8D700E
:100E9000E4FFF54C754D11752340EFC39410748039
:100EA0009480501AEF7C002570FDEC356F8D82F533
:100EB00083120805FE74242FF8A6060F80DC754700
:100EC00078120FFE7F32020F74E4FFEFC3940274B6
:100ED000809480502EE4FEEEC3941474809480506D
:100EE0001C00E4FDED120F5B501000E4FCEC120F4F
:100EF0005B5004000C80F60D80EA0E80DA639004EB
:100F00000F80C82285A75F120E41120FCC120FD698
:100F1000120FE0120FEA120FBC1200031210161289
:100F2000000A12100812000E120FA9120026120F4A
:100F3000F412100F120039120F93855FA722AE5FD3
:100F4000AF607C007D0A1208328E5F8F607C007D6E
:100F50000A020832754D02E4F52322C394FF74801F
:100F6000948022754D05E4F52322C39408E5596465
:100F7000809480228F71E4FFEFC394147480948076
:100F8000501000E4FEEE120F5B5004000E80F60FCE
:100F900080E62275E60175A71075EE01E4F5A775E8
:100FA000A89275A71075F21022AF885388AF758D7F
:100FB0002BEF5440FEEF54104E42882275BB06754D
:100FC000DF1F75BC1875B91843E8802275A4107529
:100FD000F1FE75D4CF2275A50475F27C75D5772204
:100FE00075A72075F30C75CC0722E4F5A775E340CF
:100FF00075E10522758E04758921438840222002FF
:10100000FDD202C203D2C52275A71075C1102253AA
:10101000C1FC43C1DE22759380220B00000A000050
:021020000B0BB8
:00000001FF
