:020000040000FA
:1000000002128075A7307591802222020A4BE4F516
:10001000A7F5A9E5A9548060FA75A903E5A954805C
:1000200060FA22020F06E5C8540453C8FB43C8080F
:1000300075CBFB43C80442C82222220211330203BB
:1000400086E86480F8E933E83360110460F0ED334A
:10005000EC337009E8FCE9FDEAFEEBFF220460DE08
:10006000D3EB9FEA9EE99DE8C2E78CF0C2F795F0DA
:10007000400CE8CCF8E9CDF9EACEFAEBCFFB12035D
:100080005185D0F05804700320D5B3E804700750B0
:1000900002B2D502039092D5EC0460F7E4CCC0E044
:1000A000C398F8603B94186008400DD0E0FB020351
:1000B00068E4FBFAC9FC8028E830E406E4C9FBE404
:1000C000CAFCE830E305E4C9CACBFCE85407601079
:1000D000F8C3E913F9EA13FAEB13FBEC13FCD8F1BC
:1000E00030F52FC3E49CFCEF9BFFEE9AFEED99FDEB
:1000F000D0E0FBEF4E4D4C701222DB0302038DEC7F
:100100002CFCEF33FFEE33FEED33FDED30E7EB0279
:100110000368EF2BFFEE3AFEED39FDD0E0FB501304
:100120000BBB0003020390ED13FDEE13FEEF13FF74
:10013000EC13FC020368EC4D6011E8497017ED33D5
:10014000EC3304600DE4FCFFFEFD22E933E83304E8
:1001500070F802038612035158046009E4CC24812C
:10016000500628500902039028400302038DC0E086
:10017000EB4A7044B98006D0E0FB02037CEF4E707E
:100180001CBD8008EBFFEAFEE9FD80EBE98DF0A4E1
:10019000FEE5F002021FE9CDF9EAFEEBFFEF89F080
:1001A000A4FCE5F0CE89F0A42EFFE435F0CD89F073
:1001B000A42DFEE435F08067EF4E7005BD80D7803A
:1001C000C3EF8BF0A4ACF0EE8BF0A42CFCE435F084
:1001D000F8EF8AF0A42CE5F038FCE433CB8DF0A4E2
:1001E0002CFCE5F03BF8EE8AF0A42CFCE5F038F8A6
:1001F000E433CF89F0A42CFCE5F038CF3400CE896D
:10020000F0A42FFFE5F03EFEE433C98DF0A42EFEEE
:10021000E5F039CD8AF0A42FFFE5F03EFEE43DFD88
:1002200033D0E0FB50070BBB000F020390EC2CFC1B
:10023000EF33FFEE33FEED33FD020368020390EC73
:100240005D046005E85904700302038612035158E7
:100250000460F6EC4860F2EC7004FDFEFF22C8601A
:10026000DB2481C85009C3986002500602038D98B0
:1002700050CAF582E9294B4A7005AB8202037C75AE
:10028000F0007C1A7880C3EF9BEE9AED99400DC385
:10029000EF9BFFEE9AFEED99FDE842F0DC23ACF017
:1002A000D0E0FFD0E0FED0E0FDAB8220E7101BEBFA
:1002B00060BAEC2CFCEF33FFEE33FEED33FD0203AE
:1002C00068E803F830E705C0F075F000EF2FFFEEA7
:1002D00033FEED33FD40B830E7C280AA75F02080D0
:1002E0000E75F010800575F0087D007E007F0033EC
:1002F00092D530D503120549EC334010EF33FFEEB1
:1003000033FEED33FDEC33FCD5F0ED22E5F0247E39
:10031000A2D513CC92E7CDCEFF22EDD2E7CD33ECC0
:100320003392D524814006E4FFFEFDFC22FCE4CF9D
:10033000CECDCC24E0501174FF80EDC3CC13CCCDD6
:1003400013CDCE13CECF13CF0470F030D5DE02051F
:1003500049E9D2E7C933E833F892D5EDD2E7CD3396
:10036000EC33FC5002B2D522EC30E7100FBF000C8A
:100370000EBE00080DBD00040BEB6014A2D5EB13FC
:10038000FCED92E7FD2274FFFCFDFEFF22E480F805
:10039000A2D574FF13FC7D80E480EFE709F608DF47
:1003A000FA8046E709F208DFFA803E88828C83E70C
:1003B00009F0A3DFFA8032E309F608DFFA8078E378
:1003C00009F208DFFA807088828C83E309F0A3DFEA
:1003D000FA806489828A83E0A3F608DFFA8058896C
:1003E000828A83E0A3F208DFFA804C80D280FA8010
:1003F000C680D4806980F28033801080A680EA8035
:100400009A80A880DA80E280CA803389828A83EC6D
:10041000FAE493A3C8C582C8CCC583CCF0A3C8C5F1
:1004200082C8CCC583CCDFE9DEE7800D89828A8370
:10043000E493A3F608DFF9ECFAA9F0EDFB22898238
:100440008A83ECFAE0A3C8C582C8CCC583CCF0A3EC
:10045000C8C582C8CCC583CCDFEADEE880DB8982F0
:100460008A83E493A3F208DFF980CC88F0EF60017F
:100470000E4E60C388F0ED2402B4040050B9F5823A
:10048000EB2402B4040050AF23234582239003EBF6
:1004900073BB010CE58229F582E5833AF583E022FE
:1004A0005006E92582F8E622BBFE06E92582F8E23D
:1004B00022E58229F582E5833AF583E49322BC00A4
:1004C0000BBE0029EF8DF084FFADF022E4CCF8756F
:1004D000F008EF2FFFEE33FEEC33FCEE9DEC98407E
:1004E00005FCEE9DFE0FD5F0E9E4CEFD22EDF8F51A
:1004F000F0EE8420D21CFEADF075F008EF2FFFED7A
:1005000033FD4007985006D5F0F222C398FD0FD571
:10051000F0EA22C2D5EC30E709B2D5E4C39DFDE490
:100520009CFCEE30E715B2D5E4C39FFFE49EFE12BB
:1005300004BEC3E49DFDE49CFC80031204BE30D5E0
:1005400007C3E49FFFE49EFE22C3E49FFFE49EFEF8
:10055000E49DFDE49CFC22EB9FF5F0EA9E42F0E96D
:100560009D42F0E89C45F022ECF0A3EDF0A3EEF004
:10057000A3EFF0226080040F0000000042F7FD812D
:100580004375772E43B7502843F45EA14418DBE04F
:100590004437409F4455B1224473F9D5448931F41E
:1005A0004498425044A760C844B687B644C5F80092
:1005B00044D56D0944E4DBA844F435134501B9C2C0
:1005C0004508BE98450FE4C8451724AF451ECBDA51
:1005D00045266A69452DF21F4535A063453D28191A
:1005E0004544B8FA454D65D145550000455B40008E
:1005F0004561800045618000011600010E00010F79
:10060000000114000115000212000002103FFC411D
:1006100004000041040100C100C1014204020000C5
:10062000420404000002080001020A000141040B18
:100630000341040C0042040D0000640000000000AF
:10064000C0F0F81C0C0404041CF8F0C0000000000A
:1006500000000808FCFCFC00000000000000000096
:100660006030180C0C0C1C3CF8F8E0000000000096
:100670002030180C0C0C0C1CF8F8000000000000D6
:100680000000000080E030F8FC00000000000000E6
:100690000080E0FC8C8C8C0C0C0C0C00000000002A
:1006A0000080C0E07038180C0C040400000000004A
:1006B00000381C0C0C0C0C0C0CCCFC7C0400000056
:1006C000FFFFFF000000000000F7FFFF0000000038
:1006D00000000000FFFFFF0000000000000000001D
:1006E0000000000080C060381F0F03000000000001
:1006F00000000000080C0E1F3DF8F0000000000094
:10070000E0D8CCC3C1C0C0FFFFC0C0C00000000023
:10071000000101030303070F1FFEF80000000000A3
:10072000FEFFFF07060202060EFEFCF800000000B6
:1007300000000000000080F0FE1F03000000000029
:1007400001070F1C101010101C0F07010000000003
:10075000000010101F1F1F101000000000000000FC
:1007600010181C1A19181818181818000000000082
:10077000081C1818101010080C07030000000000D7
:10078000000000000000001F1F000000000000002B
:100790001C1C1C18101018080E0701000000000097
:1007A00001070F1C18101010180F0703000000009D
:1007B00000000000001C1F070000000000000000F7
:1007C00000F8FCC682020202CEFC780000000000A5
:1007D000F0F8FC06020202060CFCF8E00000000043
:1007E0000000000000000000000000000000000009
:1007F00000000000000000000000000000000000F9
:1008000000000000000000000000000000000000E8
:1008100000000000000000000000000000000000D8
:1008200000000000000000000000000000000000C8
:1008300000000000000000000000000000000000B8
:1008400080E0F11B07070F1F3DF8F0C0000000001B
:1008500003070F0C0C0808C8FCFF7F0F0000000006
:100860000000000000000000000000000000000088
:100870000000000000000000000000000000000078
:100880000000000000000000000000000000000068
:100890000000000000000000000000000000000058
:1008A0000000000000000000000000000000000048
:1008B0000000000000000000000000000000000038
:1008C0000103070E080808080C07030100000000D8
:1008D0000008080C0C0607030100000000000000DF
:1008E000000000000E0E0E000000000000000000DE
:1008F00000000000000000000000000000000000F8
:1009000000000000000000000000000000000000E7
:1009100000000000000000000000000000000000D7
:1009200000000000000000000000000000000000C7
:1009300000000000000000000000000000000000B7
:1009400000000000000000000000000000000000A7
:100950000000000000000000000000000000000097
:100960000000000000000000000000000000000087
:100970000000000000000000000000000000000077
:100980000000000000000000000000000000000067
:100990000000000000000000000000000000000057
:1009A0000000000000000000000000000000000047
:1009B0000000000000000000000000000000000037
:1009C0000000000000000000000000000000000027
:1009D0000000000000000000000000000000000017
:1009E0000000000000000000000000000000000007
:1009F00000000000000000000000000000000000F7
:100A000000000000000000000000000000000000E6
:100A100000000000000000000000000000000000D6
:100A200000000000000000000000000000000000C6
:100A30000000000000000000000000000000024C68
:100A40000006024E00000245000000C0E0C0F0C0F9
:100A500083C082C0D075D000C000C001C002C003F6
:100A6000C004C005C006C00790048FE4F0F550F53F
:100A700051F552F553F58A900403E004F0700690A6
:100A80000402E004F0900402E07004A3E064026059
:100A900003020C21900402F0A3F0209403020B4CFB
:100AA000E51330E003020B4CA294309501B350568D
:100AB000121215CEC313CE13D8F9FFEE540FFEE574
:100AC000092FFFE5083EFED3EF94B8EE940B4016D5
:100AD000E51254C0FEE5135403FFEE442EF512EF69
:100AE00044E0F513805EAC12AD13AA08AB09AE0466
:100AF000ED7802CEC313CE13D8F91211EEC333CE64
:100B000033CED8F98035121215CEC313CE13D8F9CF
:100B1000FFEE540FFEC3EF9509EE950850085313EE
:100B2000035312C0801E121256C3EF9509FFEE95B3
:100B300008121200C333CE33CED8F9FFEC4EF512B3
:100B4000ED4FF513431301900400E4F02094035398
:100B500013FE121215CEC313CE13D8F9FFEE540FA5
:100B6000F54E8F4F208203020C09E51130E003029D
:100B70000C09A282308301B3504812122BCEC3134A
:100B8000CE13D8F9FFEE540FFEE50B2FFFE50A3E1A
:100B9000FED3EF94FFEE940F40084311FC43103F47
:100BA000805EAC10AD11AA0AAB0BAE04ED7802CE9C
:100BB000C313CE13D8F91211EEC333CE33CED8F906
:100BC000803512122BCEC313CE13D8F9FFEE540F7B
:100BD000FEC3EF950BEE950A50085311035310C056
:100BE000801E121261C3EF950BFFEE950A121200E0
:100BF000C333CE33CED8F9FFEC4EF510ED4FF511DF
:100C00004311019004017401F02082035311FE127C
:100C1000122BCEC313CE13D8F9FFEE540FF5458F28
:100C200046121215CEC313CE13D8F9121232A907E9
:100C300090048FE9F012123E12120712126C121277
:100C40004AC000C001C002C00390048FE0FF12122E
:100C50003EF58312124AEF25E025E02413F582E4E5
:100C60003404121207120041C004C005C006C007B8
:100C7000121215CEC313CE13D8F9121232E4120297
:100C8000E1D003D002D001D000120136E4FBFA79A2
:100C9000C8784212023FD003D002D001D000120027
:100CA0004512126C12120912031A900406EEF0A3F8
:100CB000EFF012122BCEC313CE13D8F9FFEE540F60
:100CC000900408F0A3EFF0ADA775A730900406E0FC
:100CD000FEA3E0F584EEF585A3E0FEA3E0F589EE42
:100CE000F58A8DA7208129200126E50B6401450A9C
:100CF0007007F50A750B0A8015E50B640A450A7042
:100D000007F50A750B648006750A00750B01D201A0
:100D1000300105308102C201209629200026E50914
:100D2000640145087007F50875090A8015E509642E
:100D30000A45087007F5087509648006750800758E
:100D40000901D200300005309602C200D007D0065B
:100D5000D005D004D003D002D001D000D0D0D082B2
:100D6000D083D0F0D0E032E4F557F558F559F55A74
:100D7000F55BF55CF55DF55E1213D21213977F32C9
:100D8000121442754C001214317524AE7525D575B8
:100D900026807527A8120E8212142275243F120E87
:100DA000821214317524D3F52575264075278D12CE
:100DB0000E91752414120EA6121431752420F525F7
:100DC0007526A17527C8120E917524DA120EA61287
:100DD0001422752412120EB5752481120EB57524D5
:100DE000CF120ECA1214227524D9120ECA1214225E
:100DF0007524F1120ED9754D07E4F5237524DB75C2
:100E000025407526A47527A675282E7529AF120EC4
:100E1000D9754D06E4F523752422F5257526FF7551
:100E20002721F528120EFA754C0012142275247F22
:100E3000120EFAE4F55DF55EAFA7F5A743881043FF
:100E400098108FA7F557F558AF4FAE4E121068E4C3
:100E5000F559F55A120EE87002055912143840F48B
:100E6000AF46AE45121068E4F559F55A120EE87017
:100E700002055912143840F40558E55870CA055750
:100E800080C67547781214CC7F32121442754C001C
:100E9000227547781214CC7F32121442754C0075BB
:100EA0004D02E4F523227547781214CC7F321214D8
:100EB00042754C00227547781214CC7F32121442CE
:100EC000754C00754D02E4F523227547781214CC59
:100ED0007F32121442754C00227547781214CC7F71
:100EE00032121442754C00227B017A0079007D8019
:100EF0007C0312135A055AE55A227547781214CC0E
:100F00007F3212144222C0E0C083C082C0D075D0AC
:100F100000C000C004C005C006C00720980302102E
:100F20000AC29885141585991490040BE014604B3F
:100F3000146051147003020FFC2403600302100AB2
:100F4000E51414601514601914602324036003026F
:100F5000100A121276E4F002100A121276F0021051
:100F60000A12121CE54EF0A3E54FF002100A12120D
:100F70001CE545F0A3E546F002100A90040B74024C
:100F8000F002100A90040AE0146037047066754E8F
:100F90000085144FE54F754F00F54EE515254FF5CB
:100FA0004FE4354EF54E540FFEE54F7802C333CE75
:100FB00033CED8F9FF121256EC4EF512ED4FF51361
:100FC0008032754500851446E546754600F545E5D1
:100FD000152546F546E43545F545540FFEE54678BA
:100FE00002C333CE33CED8F9FF121261EC4EF510A6
:100FF000ED4FF51190040B7403F0800EE514F470BE
:1010000009E515F4700490040BF0309948C29990EA
:10101000040CE0603B24FE601514601D146029245C
:101020000370327599FF90040C7402F08027759953
:101030000090040C7403F0801C90040DA3E0F5995B
:1010400090040C7404F0800D90040DE0F59980007C
:1010500090040CE4F0D007D006D005D004D000D026
:10106000D0D082D083D0E0328E5F8F60E4F565F51A
:101070006678677C00FD7BFF7A1479E8FE7F0812B2
:10108000046BAE5FAF6012141B8D6C12140C8D6B71
:1010900012140C8D6912140C8D68E5687003756864
:1010A0000CE4F561F562E4F563F56474672564F8B2
:1010B000E6756500F566D39407E56564809480E580
:1010C000664019C4F8540FC868FFE565C454F04879
:1010D000FEE42FF566EE3401F5658010C4F8540F78
:1010E000C868F566E565C454F048F5657B017A008B
:1010F0007900AE61E5627807C333CE33CED8F925E7
:1011000066FDE5653EFC12135A0564E56470020550
:1011100063C39408E56364809480408F0562E56250
:1011200070020561C39403E56164809480500302FA
:1011300010A622C0E0C0D075D000C000C20430C2EA
:10114000030211C8E5C054F02480605324C0601A23
:1011500024E070708547C253C2FEA203E43342C24A
:10116000C2C5750D01750C01806030C12420035A81
:10117000D3E50C954DE54C6480F8748098500C7460
:1011800022250CF8E6F5C2050C803FD2C4C20280CD
:1011900039D2C4D2C50522E522702F0521802BC388
:1011A000E50D9404748094807447500B250DF8A6C7
:1011B000C2D2C1050D8013250DF8A6C2C202C2C15C
:1011C000D2C48006D2048002D20430041853C17FF6
:1011D00043C180C2C5C2C4C2C1C202C2040522E565
:1011E0002270020521C2C0D000D0D0D0E032FFEE84
:1011F000540FFEEC54C0FCED5403FDEF2BFFEE3A10
:10120000540FFEEF780222F583E0FCA3E0FDA3E09B
:10121000FEA3E0FF22AE12E51378022290040B74C5
:1012200003F0A37401F07599FFA322AE10E51178C5
:101230000222FFEE540FFE7C007D640204BE25E016
:1012400025E0240FF582E4340422E0F8A3E0F9A3BA
:10125000E0FAA3E0FB22E51254C0FCE5135403FDC1
:1012600022E51054C0FCE5115403FD2290049012B5
:1012700005689004902290040B7401F090040A22F7
:1012800012003A787FE4F6D8FD7581730212CA0223
:101290000D67E493A3F8E493A34003F68001F208FA
:1012A000DFF48029E493A3F85407240CC8C333C4A3
:1012B000540F4420C8834004F456800146F6DFE40E
:1012C000800B0102040810204080900574E47E0128
:1012D0009360BCA3FF543F30E509541FFEE493A381
:1012E00060010ECF54C025E060A840B8E493A3FA93
:1012F000E493A3F8E493A3C8C582C8CAC583CAF01F
:10130000A3C8C582C8CAC583CADFE9DEE780BEE4D8
:10131000F5A77597A5F563F562F561F560E47F19AA
:10132000FEFDFCAB63AA62A961A860C31205575019
:101330001800E5632401F563E43562F562E4356184
:10134000F561E43560F56080D4A2AF9205C2AF7557
:1013500097DE7597ADA20592AF228C6F8D70E4FF7A
:10136000F54C754D11752340EFC394107480948033
:10137000501AEF7C002570FDEC356F8D82F58312DD
:101380000491FE74242FF8A6060F80DC75477812AE
:1013900014CC7F32021442E4FFEFC39402748094B1
:1013A00080502EE4FEEEC3941474809480501C0090
:1013B000E4FDED121429501000E4FCEC1214295045
:1013C00004000C80F60D80EA0E80DA6390040F8032
:1013D000C82285A75F12130F12149A1214A41214B4
:1013E000AE1214B812148A1200031214E412000A86
:1013F0001214D612000E1214771200261214C21202
:1014000014DD120039121461855FA722AE5FAF6050
:101410007C007D0A1205138E5F8F607C007D0A02BE
:101420000513754D02E4F52322C394FF7480948064
:1014300022754D05E4F52322C39408E55964809490
:1014400080228F71E4FFEFC3941474809480501055
:1014500000E4FEEE1214295004000E80F60F80E620
:101460002275E60175A71075EE01E4F5A775A8923F
:1014700075A71075F21022AF885388AF758D2BEFCA
:101480005440FEEF54104E42882275BB0675DF1F94
:1014900075BC1875B91843E8802275A41075F1FE63
:1014A00075D4CF2275A50475F27C75D5772275A702
:1014B0002075F30C75CC0722E4F5A775E34075E1C0
:1014C0000522758E04758921438840222002FDD2B1
:1014D00002C203D2C52275A71075C1102253C1FCE8
:1014E00043C1DE22759380220B00000A00000B0B23
:00000001FF
