:020000040000FA
:10000000020D6575A7307591802222020491E4F5F6
:10001000A7F5A9E5A9548060FA75A903E5A954805C
:1000200060FA22020A7DE5C8540453C8FB43C8089D
:1000300075CBFB43C80442C8222222020CAA011637
:1000400000010E00010F0001140001150002120052
:100050000002103FFC4104000041040100C100C146
:1000600001420402000042040400000208000102F0
:100070000A000141040B0341040C0042040D00007E
:10008000640000000000C0F0F81C0C0404041CF81C
:10009000F0C00000000000000808FCFCFC000000AC
:1000A0000000000000006030180C0C0C1C3CF8F83C
:1000B000E000000000002030180C0C0C0C1CF8F8BC
:1000C0000000000000000000000080E030F8FC00AC
:1000D0000000000000000080E0FC8C8C8C0C0C0CFC
:1000E0000C00000000000080C0E07038180C0C0408
:1000F00004000000000000381C0C0C0C0C0C0CCC94
:10010000FC7C04000000FFFFFF000000000000F77F
:10011000FFFF0000000000000000FFFFFF000000E4
:100120000000000000000000000080C060381F0FC9
:1001300003000000000000000000080C0E1F3DF846
:10014000F00000000000E0D8CCC3C1C0C0FFFFC079
:10015000C0C000000000000101030303070F1FFEE1
:10016000F80000000000FEFFFF07060202060EFE78
:10017000FCF80000000000000000000080F0FE1FFE
:1001800003000000000001070F1C101010101C0FCE
:10019000070100000000000010101F1F1F101000BA
:1001A00000000000000010181C1A19181818181860
:1001B000180000000000081C1818101010080C0788
:1001C000030000000000000000000000001F1F00EE
:1001D0000000000000001C1C1C18101018080E075E
:1001E00001000000000001070F1C18101010180F6C
:1001F00007030000000000000000001C1F070000B3
:1002000000000000000000F8FCC682020202CEFCE2
:10021000780000000000F0F8FC06020202060CFC68
:10022000F8E00000000000000000000000000000F6
:1002300000000000000000000000000000000000BE
:1002400000000000000000000000000000000000AE
:10025000000000000000000000000000000000009E
:10026000000000000000000000000000000000008E
:10027000000000000000000000000000000000007E
:1002800000000000000080E0F11B07070F1F3DF891
:10029000F0C00000000003070F0C0C0808C8FCFFAA
:1002A0007F0F0000000000000000000000000000C0
:1002B000000000000000000000000000000000003E
:1002C000000000000000000000000000000000002E
:1002D000000000000000000000000000000000001E
:1002E000000000000000000000000000000000000E
:1002F00000000000000000000000000000000000FE
:100300000000000000000103070E080808080C07A1
:100310000301000000000008080C0C0607030100A0
:10032000000000000000000000000E0E0E000000A3
:1003300000000000000000000000000000000000BD
:1003400000000000000000000000000000000000AD
:10035000000000000000000000000000000000009D
:10036000000000000000000000000000000000008D
:10037000000000000000000000000000000000007D
:10038000000000000000000000000000000000006D
:10039000000000000000000000000000000000005D
:1003A000000000000000000000000000000000004D
:1003B000000000000000000000000000000000003D
:1003C000000000000000000000000000000000002D
:1003D000000000000000000000000000000000001D
:1003E000000000000000000000000000000000000D
:1003F00000000000000000000000000000000000FD
:1004000000000000000000000000000000000000EC
:1004100000000000000000000000000000000000DC
:1004200000000000000000000000000000000000CC
:1004300000000000000000000000000000000000BC
:1004400000000000000000000000000000000000AC
:10045000000000000000000000000000000000009C
:10046000000000000000000000000000000000008C
:10047000000000000000000000000000000000007C
:1004800000000000024C0006024E00000245000081
:1004900000C0E0C083C082C0D075D000C000C002E0
:1004A000C003C004C005C006C007755000755100E8
:1004B000755200755300758A00900403E004F070D3
:1004C00006900402E004F0900402E07004A3E064EB
:1004D000026003020649900402F0A3F02094030294
:1004E000057AE51330E00302057AA294309501B352
:1004F0005042120E1CCEC313CE13D8F9FFEE540F88
:10050000FEE5092FFFE508120E4040084313FC43A7
:10051000123F805EAC12AD13AA08AB09AE04ED78B1
:1005200002CEC313CE13D8F9120DF4C333CE33CE9B
:10053000D8F98035120E1CCEC313CE13D8F9FFEEB6
:10054000540FFEC3EF9509EE95085008531303535B
:1005500012C0801E120E2AC3EF9509FFEE950812F5
:100560000E06C333CE33CED8F9FFEC4EF512ED4F65
:10057000F513431301900400E4F02094035313FE99
:10058000120E1CCEC313CE13D8F9FFEE540FF54E46
:100590008F4F208203020631E51130E0030206315D
:1005A000A282308301B35042120E23CEC313CE1366
:1005B000D8F9FFEE540FFEE50B2FFFE50A120E40AF
:1005C00040084311FC43103F805EAC10AD11AA0AF5
:1005D000AB0BAE04ED7802CEC313CE13D8F9120DD7
:1005E000F4C333CE33CED8F98035120E23CEC313E5
:1005F000CE13D8F9FFEE540FFEC3EF950BEE950A1C
:1006000050085311035310C0801E120E35C3EF95CE
:100610000BFFEE950A120E06C333CE33CED8F9FF88
:10062000EC4EF510ED4FF5114311019004017401EA
:10063000F02082035311FE120E23CEC313CE13D823
:10064000F9FFEE540FF5458F46120E1CCEC313CEA4
:1006500013D8F9FFEE540F900406F0A3EFF0120E3A
:1006600023CEC313CE13D8F9FFEE540F900408F035
:10067000A3EFF0ADA775A730900406E0FEA3E0F568
:1006800084EEF585A3E0FEA3E0F589EEF58A8DA75B
:10069000208129200126E50B6401450A7007F50A2F
:1006A000750B0A8015E50B640A450A7007F50A7593
:1006B0000B648006750A00750B01D201300105300C
:1006C0008102C201209629200026E509640145081F
:1006D0007007F50875090A8015E509640A45087070
:1006E00007F5087509648006750800750901D200D0
:1006F000300005309602C200D007D006D005D004E5
:10070000D003D002D000D0D0D082D083D0E032E766
:1007100009F608DFFA8046E709F208DFFA803E882A
:10072000828C83E709F0A3DFFA8032E309F608DF61
:10073000FA8078E309F208DFFA807088828C83E31C
:1007400009F0A3DFFA806489828A83E0A3F608DFD8
:10075000FA805889828A83E0A3F208DFFA804C800D
:10076000D280FA80C680D4806980F2803380108085
:10077000A680EA809A80A880DA80E280CA803389E5
:10078000828A83ECFAE493A3C8C582C8CCC583CC23
:10079000F0A3C8C582C8CCC583CCDFE9DEE7800DF5
:1007A00089828A83E493A3F608DFF9ECFAA9F0EDD5
:1007B000FB2289828A83ECFAE0A3C8C582C8CCC533
:1007C00083CCF0A3C8C582C8CCC583CCDFEADEE801
:1007D00080DB89828A83E493A3F208DFF980CC88E6
:1007E000F0EF60010E4E60C388F0ED2402B4040007
:1007F00050B9F582EB2402B4040050AF23234582A4
:100800002390075F73BB010CE58229F582E5833AEB
:10081000F583E0225006E92582F8E622BBFE06E9D0
:100820002582F8E222E58229F582E5833AF583E420
:100830009322C2D5EC30E709B2D5E4C39DFDE49C18
:10084000FCEE30E715B2D5E4C39FFFE49EFE12082C
:1008500079C3E49DFDE49CFC800312087930D50740
:10086000C3E49FFFE49EFE22EB9FF5F0EA9E42F078
:10087000E99D42F0E89C45F022BC000BBE0029EF48
:100880008DF084FFADF022E4CCF875F008EF2FFF77
:10089000EE33FEEC33FCEE9DEC984005FCEE9DFE45
:1008A0000FD5F0E9E4CEFD22EDF8F5F0EE8420D28C
:1008B0001CFEADF075F008EF2FFFED33FD400798FB
:1008C0005006D5F0F222C398FD0FD5F0EA22E4F5E8
:1008D00057F558F559F55AF55BF55CF55DF55E127F
:1008E0000F17AFA775A730758422758502758977B4
:1008F000758A038FA7120EDC7F32120F87754C00AA
:10090000120F767524AE7525D57526807527A81229
:1009100009F9120F6775243F1209F9120F76752431
:10092000D3F52575264075278D120A0875241412F3
:100930000A1D120F76752420F5257526A17527C886
:10094000120A087524DA120A1D120F677524121292
:100950000A2C752481120A2C7524CF120A41120F19
:10096000677524D9120A41120F677524F1120A50D3
:10097000754D07E4F5237524DB7525407526A475B0
:1009800027A675282E7529AF120A50754D06E4F575
:1009900023752422F5257526FF752721F528120ACF
:1009A00071754C00120F6775247F120A71E4F55DB2
:1009B000F55EAFA7F5A74388108FA7F557F558AF99
:1009C0004FAE4E120BDFE4F559F55A120A5F700272
:1009D0000559120F7D40F4AF46AE45120BDFE4F52A
:1009E00059F55A120A5F70020559120F7D40F4053D
:1009F00058E55870CA055780C67547781210117FA0
:100A000032120F87754C00227547781210117F3211
:100A1000120F87754C00754D02E4F5232275477857
:100A20001210117F32120F87754C00227547781211
:100A300010117F32120F87754C00754D02E4F523BB
:100A4000227547781210117F32120F87754C0022E1
:100A50007547781210117F32120F87754C00227B78
:100A6000017A0079007D807C03120E9F055AE55AB9
:100A7000227547781210117F32120F8722C0E0C012
:100A800083C082C0D075D000C000C004C005C006BD
:100A9000C007209803020B81C2988514158599140C
:100AA00090040BE014604B146051147003020B733C
:100AB00024036003020B81E51414601514601914FB
:100AC000602324036003020B81120E4AE4F0020B40
:100AD00081120E4AF0020B81120E0DE54EF0A3E5D5
:100AE0004FF0020B81120E0DE545F0A3E546F00232
:100AF0000B8190040B7402F0020B8190040AE01445
:100B00006037047066754E0085144FE54F754F00D1
:100B1000F54EE515254FF54FE4354EF54E540FFED5
:100B2000E54F7802C333CE33CED8F9FF120E2AEC4C
:100B30004EF512ED4FF5138032754500851446E5EC
:100B400046754600F545E5152546F546E43545F577
:100B500045540FFEE5467802C333CE33CED8F9FFB5
:100B6000120E35EC4EF510ED4FF51190040B740399
:100B7000F0800EE514F47009E515F4700490040B90
:100B8000F0309948C29990040CE0603B24FE601557
:100B900014601D146029240370327599FF90040CB1
:100BA0007402F0802775990090040C7403F0801C87
:100BB00090040DA3E0F59990040C7404F0800D905E
:100BC000040DE0F599800090040CE4F0D007D00605
:100BD000D005D004D000D0D0D082D083D0E0328EE7
:100BE0005F8F60E4F565F56678677C00FD7BFF7AD2
:100BF00010792DFE7F081207DFAE5FAF60120F6025
:100C00008D6C120F518D6B120F518D69120F518D1A
:100C100068E568700375680CE4F561F562E4F563F6
:100C2000F56474672564F8E6756500F566D3940786
:100C3000E56564809480E5664019C4F8540FC8687F
:100C4000FFE565C454F048FEE42FF566EE3401F587
:100C5000658010C4F8540FC868F566E565C454F0A3
:100C600048F5657B017A007900AE61E5627807C3DB
:100C700033CE33CED8F92566FDE5653EFC120E9FD6
:100C80000564E56470020563C39408E563648094B9
:100C900080408F0562E56270020561C39403E561DF
:100CA000648094805003020C1D22C0E0C0D075D037
:100CB00000C000C20430C203020D3FE5C054F0245E
:100CC00080605324C0601A24E070708547C253C20C
:100CD000FEA203E43342C2C2C5750D01750C01804A
:100CE0006030C12420035AD3E50C954DE54C648057
:100CF000F8748098500C7422250CF8E6F5C2050CA7
:100D0000803FD2C4C2028039D2C4D2C50522E522B6
:100D1000702F0521802BC3E50D940474809480749A
:100D200047500B250DF8A6C2D2C1050D8013250D25
:100D3000F8A6C2C202C2C1D2C48006D2048002D2C6
:100D40000430041853C17F43C180C2C5C2C4C2C1AC
:100D5000C202C2040522E52270020521C2C0D000F1
:100D6000D0D0D0E03212003A787FE4F6D8FD758119
:100D700073020DAF0208CEE493A3F8E493A34003FB
:100D8000F68001F208DFF48029E493A3F8540724E5
:100D90000CC8C333C4540F4420C8834004F45680A5
:100DA0000146F6DFE4800B01020408102040809029
:100DB000003EE47E019360BCA3FF543F30E509543C
:100DC0001FFEE493A360010ECF54C025E060A8404D
:100DD000B8E493A3FAE493A3F8E493A3C8C582C844
:100DE000CAC583CAF0A3C8C582C8CAC583CADFE919
:100DF000DEE780BEFFEE540FFEEC54C0FCED540362
:100E0000FDEF2BFFEE3A540FFEEF78022290040B19
:100E10007403F0A37401F07599FFA322AE12E513D9
:100E2000780222AE10E511780222E51254C0FCE5EA
:100E3000135403FD22E51054C0FCE5115403FD22B8
:100E40003EFED3EF94FFEE940F2290040B7401F05A
:100E500090040A22E4F5A77597A5F563F562F5619C
:100E6000F560E47F19FEFDFCAB63AA62A961A8608E
:100E7000C3120868501800E5632401F563E4356285
:100E8000F562E43561F561E43560F56080D4A2AFC8
:100E90009205C2AF7597DE7597ADA20592AF228C11
:100EA0006F8D70E4FFF54C754D11752340EFC394C1
:100EB0001074809480501AEF7C002570FDEC356F23
:100EC0008D82F583120805FE74242FF8A6060F8084
:100ED000DC7547781210117F32020F87E4FFEFC3F1
:100EE000940274809480502EE4FEEEC394147480B7
:100EF0009480501C00E4FDED120F6E501000E4FCD5
:100F0000EC120F6E5004000C80F60D80EA0E80DAB1
:100F10006390040F80C82285A75F120E54120FDF62
:100F2000120FE9120FF3120FFD120FCF120003126E
:100F3000102912000A12101B12000E120FBC120010
:100F400026121007121022120039120FA6855FA771
:100F500022AE5FAF607C007D0A1208328E5F8F6028
:100F60007C007D0A020832754D02E4F52322C39409
:100F7000FF7480948022754D05E4F52322C3940804
:100F8000E55964809480228F71E4FFEFC394147458
:100F9000809480501000E4FEEE120F6E5004000E9C
:100FA00080F60F80E62275E60175A71075EE01E464
:100FB000F5A775A89275A71075F21022AF8853880F
:100FC000AF758D2BEF5440FEEF54104E42882275C2
:100FD000BB0675DF1F75BC1875B91843E88022750C
:100FE000A41075F1FE75D4CF2275A50475F27C7539
:100FF000D5772275A72075F30C75CC0722E4F5A7E9
:1010000075E34075E10522758E047589214388409A
:10101000222002FDD202C203D2C52275A71075C1DB
:10102000102253C1FC43C1DE22759380220B0000C5
:051030000A00000B0B9B
:00000001FF
