:020000040000FA
:1000000002038C638400000001020001020001026F
:1000100000010200010200010200010200010200D1
:1000200001020001020001020001020001020001C0
:1000300002000102000102000102000102000102AF
:1000400000010200010200010200010200010200A1
:100050000102000102000102000102000102000190
:10006000020001020001020001020001020001027F
:100070000001020001020001020001020001020071
:100080000102000102000102000102000102000160
:10009000020001020001020001020001020001024F
:1000A0000001020001020001020001020001020041
:1000B0000102000102000102000102000102000130
:1000C000020001020001020001020001020001021F
:1000D0000001020001020001020001020001020011
:1000E0000102000102000102000102000102000100
:1000F00002000102000102000102000102000102EF
:1001000000010200010200010200010200010200E0
:1001100001020001020001020001020001020001CF
:1001200002000102000102000102000102000102BE
:1001300000010200010200010200010200010200B0
:10014000010200010200010200010200010200019F
:10015000020001020001020001020001020001028E
:100160000001020001020001020001020001020080
:10017000010200010200010200010200010200016F
:10018000020001020001020001020001020001025E
:100190000001020001020001020001020001020050
:1001A000010200010200010200010200010200013F
:1001B000020001020001020001020001020001022E
:1001C0000001020001020001020001020001020020
:1001D000010200010200010200010200010200010F
:1001E00002000102000102000102000102000102FE
:1001F00000010200010200010200010200010200F0
:1002000001020001020001020001020001020001DE
:1002100002000102000102000102000102000102CD
:1002200000010200010200010200010200010200BF
:1002300001020001020001020001020001020001AE
:10024000020001020001020001020001020001029D
:10025000000102000102000102000102000102008F
:10026000010200010200010200010200010200017E
:10027000020001020001020001020001020001026D
:10028000000102000102000102000102000102005F
:10029000010200010200010200010200010200014E
:1002A000020001020001020001020001020001023D
:1002B000000102000102000102000102000102002F
:1002C000010200010200010200010200010200011E
:1002D000020001020001020001020001020001020D
:1002E00000010200010200010200010200010200FF
:1002F00001020001020001020001020001020001EE
:1003000002000102000102000102000102000102DC
:1003100000010200010200010200010200010200CE
:1003200001020001020001020001020001020001BD
:1003300002000102000102000102000102000102AC
:10034000000102000102000102000102000102009E
:10035000010200010200010200010200010200018D
:10036000020001020001020001020001020001027C
:10037000000102000102000102000102000102006E
:100380000102000102000102000102001205817851
:100390007FE4F6D8FD7581200203D602041BE493A6
:1003A000A3F8E493A34003F68001F208DFF4802968
:1003B000E493A3F85407240CC8C333C4540F442057
:1003C000C8834004F456800146F6DFE4800B010246
:1003D000040810204080900003E47E019360BCA3D9
:1003E000FF543F30E509541FFEE493A360010ECF94
:1003F00054C025E060A840B8E493A3FAE493A3F8BE
:10040000E493A3C8C582C8CAC583CAF0A3C8C5827D
:10041000C8CAC583CADFE9DEE780BE1204BA7580A8
:10042000FF7590FF75A0FFAFA775A7307584227583
:100430008502758977758A038FA7E4FFEFC394035C
:1004400074809480502400E4FEEEC394FF74809482
:1004500080501400E4FDEDC394FF74809480500438
:10046000000D80F20E80E20F80D263900480CBE416
:10047000F5A77597A5F50CF50BF50AF509E47F19B5
:10048000FEFDFCAB0CAA0BA90AA809C31205165065
:100490001800E50C2401F50CE4350BF50BE4350AE6
:1004A000F50AE43509F50980D4A2AF9200C2AF7510
:1004B00097DE7597ADA20092AF2285A70812046F50
:1004C00012053712054112054B1205551205271268
:1004D000055F12057C1205801205661204EE1205F6
:1004E0000312056D1205741205788508A722E4F53C
:1004F000A7F5A9E5A9548060FA75A903E5A9548078
:1005000060FA22AF885388AF758DDDEF5440FEEF5F
:1005100054104E428822EB9FF5F0EA9E42F0E99D8E
:1005200042F0E89C45F02275BB0675DF1F75BC18CC
:1005300075B91843E8802275A49275F1FE75D4CF81
:100540002275A51475F27C75D5772275A72075F3F1
:100550000C75CC0722E4F5A775E3C075E10522759B
:10056000A7307591802275A71075C110227589205A
:100570004388402243C1032243981022759380226E
:02058000222235
:00000001FF
