:020000040000FA
:10000000020D6875A7307591802222020491E4F5F3
:10001000A7F5A9E5A9548060FA75A903E5A954805C
:1000200060FA22020A80E5C8540453C8FB43C8089A
:1000300075CBFB43C80442C8222222020CAD011634
:1000400000010E00010F0001140001150002120052
:100050000002103FFC4104000041040100C100C146
:1000600001420402000042040400000208000102F0
:100070000A000141040B0341040C0042040D00007E
:10008000640000000000C0F0F81C0C0404041CF81C
:10009000F0C00000000000000808FCFCFC000000AC
:1000A0000000000000006030180C0C0C1C3CF8F83C
:1000B000E000000000002030180C0C0C0C1CF8F8BC
:1000C0000000000000000000000080E030F8FC00AC
:1000D0000000000000000080E0FC8C8C8C0C0C0CFC
:1000E0000C00000000000080C0E07038180C0C0408
:1000F00004000000000000381C0C0C0C0C0C0CCC94
:10010000FC7C04000000FFFFFF000000000000F77F
:10011000FFFF0000000000000000FFFFFF000000E4
:100120000000000000000000000080C060381F0FC9
:1001300003000000000000000000080C0E1F3DF846
:10014000F00000000000E0D8CCC3C1C0C0FFFFC079
:10015000C0C000000000000101030303070F1FFEE1
:10016000F80000000000FEFFFF07060202060EFE78
:10017000FCF80000000000000000000080F0FE1FFE
:1001800003000000000001070F1C101010101C0FCE
:10019000070100000000000010101F1F1F101000BA
:1001A00000000000000010181C1A19181818181860
:1001B000180000000000081C1818101010080C0788
:1001C000030000000000000000000000001F1F00EE
:1001D0000000000000001C1C1C18101018080E075E
:1001E00001000000000001070F1C18101010180F6C
:1001F00007030000000000000000001C1F070000B3
:1002000000000000000000F8FCC682020202CEFCE2
:10021000780000000000F0F8FC06020202060CFC68
:10022000F8E00000000000000000000000000000F6
:1002300000000000000000000000000000000000BE
:1002400000000000000000000000000000000000AE
:10025000000000000000000000000000000000009E
:10026000000000000000000000000000000000008E
:10027000000000000000000000000000000000007E
:1002800000000000000080E0F11B07070F1F3DF891
:10029000F0C00000000003070F0C0C0808C8FCFFAA
:1002A0007F0F0000000000000000000000000000C0
:1002B000000000000000000000000000000000003E
:1002C000000000000000000000000000000000002E
:1002D000000000000000000000000000000000001E
:1002E000000000000000000000000000000000000E
:1002F00000000000000000000000000000000000FE
:100300000000000000000103070E080808080C07A1
:100310000301000000000008080C0C0607030100A0
:10032000000000000000000000000E0E0E000000A3
:1003300000000000000000000000000000000000BD
:1003400000000000000000000000000000000000AD
:10035000000000000000000000000000000000009D
:10036000000000000000000000000000000000008D
:10037000000000000000000000000000000000007D
:10038000000000000000000000000000000000006D
:10039000000000000000000000000000000000005D
:1003A000000000000000000000000000000000004D
:1003B000000000000000000000000000000000003D
:1003C000000000000000000000000000000000002D
:1003D000000000000000000000000000000000001D
:1003E000000000000000000000000000000000000D
:1003F00000000000000000000000000000000000FD
:1004000000000000000000000000000000000000EC
:1004100000000000000000000000000000000000DC
:1004200000000000000000000000000000000000CC
:1004300000000000000000000000000000000000BC
:1004400000000000000000000000000000000000AC
:10045000000000000000000000000000000000009C
:10046000000000000000000000000000000000008C
:10047000000000000000000000000000000000007C
:1004800000000000024C0006024E00000245000081
:1004900000C0E0C083C082C0D075D000C000C002E0
:1004A000C003C004C005C006C007755000755100E8
:1004B000755200755300758A00900403E004F070D3
:1004C00006900402E004F0900402E07004A3E064EB
:1004D000026003020649900402F0A3F02094030294
:1004E000057AE51330E00302057AA294309501B352
:1004F0005042120E1FCEC313CE13D8F9FFEE540F85
:10050000FEE5092FFFE508120E4340084313FC43A4
:10051000123F805EAC12AD13AA08AB09AE04ED78B1
:1005200002CEC313CE13D8F9120DF7C333CE33CE98
:10053000D8F98035120E1FCEC313CE13D8F9FFEEB3
:10054000540FFEC3EF9509EE95085008531303535B
:1005500012C0801E120E2DC3EF9509FFEE950812F2
:100560000E09C333CE33CED8F9FFEC4EF512ED4F62
:10057000F513431301900400E4F02094035313FE99
:10058000120E1FCEC313CE13D8F9FFEE540FF54E43
:100590008F4F208203020631E51130E0030206315D
:1005A000A282308301B35042120E26CEC313CE1363
:1005B000D8F9FFEE540FFEE50B2FFFE50A120E43AC
:1005C00040084311FC43103F805EAC10AD11AA0AF5
:1005D000AB0BAE04ED7802CEC313CE13D8F9120DD7
:1005E000F7C333CE33CED8F98035120E26CEC313DF
:1005F000CE13D8F9FFEE540FFEC3EF950BEE950A1C
:1006000050085311035310C0801E120E38C3EF95CB
:100610000BFFEE950A120E09C333CE33CED8F9FF85
:10062000EC4EF510ED4FF5114311019004017401EA
:10063000F02082035311FE120E26CEC313CE13D820
:10064000F9FFEE540FF5458F46120E1FCEC313CEA1
:1006500013D8F9FFEE540F900406F0A3EFF0120E3A
:1006600026CEC313CE13D8F9FFEE540F900408F032
:10067000A3EFF0ADA775A730900406E0FEA3E0F568
:1006800084EEF585A3E0FEA3E0F589EEF58A8DA75B
:10069000208129200126E50B6401450A7007F50A2F
:1006A000750B0A8015E50B640A450A7007F50A7593
:1006B0000B648006750A00750B01D201300105300C
:1006C0008102C201209629200026E509640145081F
:1006D0007007F50875090A8015E509640A45087070
:1006E00007F5087509648006750800750901D200D0
:1006F000300005309602C200D007D006D005D004E5
:10070000D003D002D000D0D0D082D083D0E032E766
:1007100009F608DFFA8046E709F208DFFA803E882A
:10072000828C83E709F0A3DFFA8032E309F608DF61
:10073000FA8078E309F208DFFA807088828C83E31C
:1007400009F0A3DFFA806489828A83E0A3F608DFD8
:10075000FA805889828A83E0A3F208DFFA804C800D
:10076000D280FA80C680D4806980F2803380108085
:10077000A680EA809A80A880DA80E280CA803389E5
:10078000828A83ECFAE493A3C8C582C8CCC583CC23
:10079000F0A3C8C582C8CCC583CCDFE9DEE7800DF5
:1007A00089828A83E493A3F608DFF9ECFAA9F0EDD5
:1007B000FB2289828A83ECFAE0A3C8C582C8CCC533
:1007C00083CCF0A3C8C582C8CCC583CCDFEADEE801
:1007D00080DB89828A83E493A3F208DFF980CC88E6
:1007E000F0EF60010E4E60C388F0ED2402B4040007
:1007F00050B9F582EB2402B4040050AF23234582A4
:100800002390075F73BB010CE58229F582E5833AEB
:10081000F583E0225006E92582F8E622BBFE06E9D0
:100820002582F8E222E58229F582E5833AF583E420
:100830009322C2D5EC30E709B2D5E4C39DFDE49C18
:10084000FCEE30E715B2D5E4C39FFFE49EFE12082C
:1008500079C3E49DFDE49CFC800312087930D50740
:10086000C3E49FFFE49EFE22EB9FF5F0EA9E42F078
:10087000E99D42F0E89C45F022BC000BBE0029EF48
:100880008DF084FFADF022E4CCF875F008EF2FFF77
:10089000EE33FEEC33FCEE9DEC984005FCEE9DFE45
:1008A0000FD5F0E9E4CEFD22EDF8F5F0EE8420D28C
:1008B0001CFEADF075F008EF2FFFED33FD400798FB
:1008C0005006D5F0F222C398FD0FD5F0EA22E4F5E8
:1008D00057F558F559F55AF55BF55CF55DF55E127F
:1008E0000F1AAFA775A730758422758502758977B1
:1008F000758A038FA7120EDF7F32120F8A754C00A4
:10090000120F797524AE7525D57526807527A81226
:1009100009FC120F6A75243F1209FC120F79752425
:10092000D3F52575264075278D120A0B75241412F0
:100930000A20120F79752420F5257526A17527C880
:10094000120A0B7524DA120A20120F6A7524121289
:100950000A2F752481120A2F7524CF120A44120F10
:100960006A7524D9120A44120F6A7524F1120A53C7
:10097000754D07E4F5237524DB7525407526A475B0
:1009800027A675282E7529AF120A53754D06E4F572
:1009900023752422F5257526FF752721F528120ACF
:1009A00074754C00120F6A75247F120A74E4F55DA9
:1009B000F55EAFA7F5A74388104398108FA7F557AA
:1009C000F558AF4FAE4E120BE2E4F559F55A120A44
:1009D0006270020559120F8040F4AF46AE45120B0B
:1009E000E2E4F559F55A120A6270020559120F80B5
:1009F00040F40558E55870CA055780C67547781207
:100A000010147F32120F8A754C002275477812102D
:100A1000147F32120F8A754C00754D02E4F52322C3
:100A20007547781210147F32120F8A754C002275A8
:100A300047781210147F32120F8A754C00754D02E0
:100A4000E4F523227547781210147F32120F8A754D
:100A50004C00227547781210147F32120F8A754CA1
:100A600000227B017A0079007D807C03120EA205B2
:100A70005AE55A227547781210147F32120F8A22D3
:100A8000C0E0C083C082C0D075D000C000C004C028
:100A900005C006C007209803020B84C29885141570
:100AA00085991490040BE014604B1460511470038A
:100AB000020B7624036003020B84E5141460151402
:100AC000601914602324036003020B84120E4DE4AA
:100AD000F0020B84120E4DF0020B84120E10E54E44
:100AE000F0A3E54FF0020B84120E10E545F0A3E5EC
:100AF00046F0020B8490040B7402F0020B84900405
:100B00000AE0146037047066754E0085144FE54F97
:100B1000754F00F54EE515254FF54FE4354EF54E72
:100B2000540FFEE54F7802C333CE33CED8F9FF120F
:100B30000E2DEC4EF512ED4FF51380327545008504
:100B40001446E546754600F545E5152546F546E4A7
:100B50003545F545540FFEE5467802C333CE33CE16
:100B6000D8F9FF120E38EC4EF510ED4FF511900448
:100B70000B7403F0800EE514F47009E515F47004AD
:100B800090040BF0309948C29990040CE0603B242B
:100B9000FE601514601D146029240370327599FFDE
:100BA00090040C7402F0802775990090040C740373
:100BB000F0801C90040DA3E0F59990040C7404F0EF
:100BC000800D90040DE0F599800090040CE4F0D0C5
:100BD00007D006D005D004D000D0D0D082D083D0AA
:100BE000E0328E5F8F60E4F565F56678677C00FD26
:100BF0007BFF7A107930FE7F081207DFAE5FAF60AF
:100C0000120F638D6C120F548D6B120F548D69127D
:100C10000F548D68E568700375680CE4F561F56242
:100C2000E4F563F56474672564F8E6756500F566B8
:100C3000D39407E56564809480E5664019C4F85450
:100C40000FC868FFE565C454F048FEE42FF566EE72
:100C50003401F5658010C4F8540FC868F566E56581
:100C6000C454F048F5657B017A007900AE61E56215
:100C70007807C333CE33CED8F92566FDE5653EFC53
:100C8000120EA20564E56470020563C39408E5636F
:100C900064809480408F0562E56270020561C394B0
:100CA00003E561648094805003020C2022C0E0C000
:100CB000D075D000C000C20430C203020D42E5C0AE
:100CC00054F02480605324C0601A24E0707085477B
:100CD000C253C2FEA203E43342C2C2C5750D017500
:100CE0000C01806030C12420035AD3E50C954DE5FA
:100CF0004C6480F8748098500C7422250CF8E6F54A
:100D0000C2050C803FD2C4C2028039D2C4D2C5050C
:100D100022E522702F0521802BC3E50D94047480F9
:100D200094807447500B250DF8A6C2D2C1050D80E2
:100D300013250DF8A6C2C202C2C1D2C48006D204D5
:100D40008002D20430041853C17F43C180C2C5C29F
:100D5000C4C2C1C202C2040522E52270020521C23A
:100D6000C0D000D0D0D0E03212003A787FE4F6D87C
:100D7000FD758173020DB20208CEE493A3F8E493EB
:100D8000A34003F68001F208DFF48029E493A3F87E
:100D90005407240CC8C333C4540F4420C8834004F0
:100DA000F456800146F6DFE4800B010204081020AF
:100DB000408090003EE47E019360BCA3FF543F302E
:100DC000E509541FFEE493A360010ECF54C025E053
:100DD00060A840B8E493A3FAE493A3F8E493A3C80B
:100DE000C582C8CAC583CAF0A3C8C582C8CAC5839C
:100DF000CADFE9DEE780BEFFEE540FFEEC54C0FC14
:100E0000ED5403FDEF2BFFEE3A540FFEEF78022274
:100E100090040B7403F0A37401F07599FFA322AE44
:100E200012E513780222AE10E511780222E5125481
:100E3000C0FCE5135403FD22E51054C0FCE5115439
:100E400003FD223EFED3EF94FFEE940F2290040B9D
:100E50007401F090040A22E4F5A77597A5F563F5EF
:100E600062F561F560E47F19FEFDFCAB63AA62A93F
:100E700061A860C3120868501800E5632401F56397
:100E8000E43562F562E43561F561E43560F5608072
:100E9000D4A2AF9205C2AF7597DE7597ADA2059249
:100EA000AF228C6F8D70E4FFF54C754D11752340AA
:100EB000EFC3941074809480501AEF7C002570FD6D
:100EC000EC356F8D82F583120805FE74242FF8A689
:100ED000060F80DC7547781210147F32020F8AE407
:100EE000FFEFC3940274809480502EE4FEEEC3940E
:100EF0001474809480501C00E4FDED120F715010AA
:100F000000E4FCEC120F715004000C80F60D80EA36
:100F10000E80DA6390040F80C82285A75F120E57F7
:100F2000120FE2120FEC120FF6121000120FD21273
:100F3000000312102C12000A12101E12000E120FC3
:100F4000BF12002612100A121025120039120FA922
:100F5000855FA722AE5FAF607C007D0A1208328EEB
:100F60005F8F607C007D0A020832754D02E4F52334
:100F700022C394FF7480948022754D05E4F52322EA
:100F8000C39408E55964809480228F71E4FFEFC315
:100F9000941474809480501000E4FEEE120F71508F
:100FA00004000E80F60F80E62275E60175A7107525
:100FB000EE01E4F5A775A89275A71075F21022AF9F
:100FC000885388AF758D2BEF5440FEEF54104E427E
:100FD000882275BB0675DF1F75BC1875B91843E804
:100FE000802275A49275F1FE75D4CF2275A5147573
:100FF000F27C75D5772275A72075F30C75CC072286
:10100000E4F5A775E34075E10522758E0475892125
:10101000438840222002FDD202C203D2C52275A716
:101020001075C1102253C1FC43C1DE22759380228A
:081030000B00000A00000B0B8D
:00000001FF
